{
  "contractName": "MintTicketToken",
  "abi": [
    {
      "inputs": [],
      "stateMutability": "nonpayable",
      "type": "constructor"
    },
    {
      "anonymous": false,
      "inputs": [
        {
          "indexed": true,
          "internalType": "address",
          "name": "owner",
          "type": "address"
        },
        {
          "indexed": true,
          "internalType": "address",
          "name": "approved",
          "type": "address"
        },
        {
          "indexed": true,
          "internalType": "uint256",
          "name": "tokenId",
          "type": "uint256"
        }
      ],
      "name": "Approval",
      "type": "event"
    },
    {
      "anonymous": false,
      "inputs": [
        {
          "indexed": true,
          "internalType": "address",
          "name": "owner",
          "type": "address"
        },
        {
          "indexed": true,
          "internalType": "address",
          "name": "operator",
          "type": "address"
        },
        {
          "indexed": false,
          "internalType": "bool",
          "name": "approved",
          "type": "bool"
        }
      ],
      "name": "ApprovalForAll",
      "type": "event"
    },
    {
      "anonymous": false,
      "inputs": [
        {
          "indexed": true,
          "internalType": "address",
          "name": "previousOwner",
          "type": "address"
        },
        {
          "indexed": true,
          "internalType": "address",
          "name": "newOwner",
          "type": "address"
        }
      ],
      "name": "OwnershipTransferred",
      "type": "event"
    },
    {
      "anonymous": false,
      "inputs": [
        {
          "indexed": true,
          "internalType": "address",
          "name": "from",
          "type": "address"
        },
        {
          "indexed": true,
          "internalType": "address",
          "name": "to",
          "type": "address"
        },
        {
          "indexed": true,
          "internalType": "uint256",
          "name": "tokenId",
          "type": "uint256"
        }
      ],
      "name": "Transfer",
      "type": "event"
    },
    {
      "anonymous": false,
      "inputs": [
        {
          "indexed": false,
          "internalType": "string",
          "name": "name",
          "type": "string"
        },
        {
          "indexed": false,
          "internalType": "address",
          "name": "own",
          "type": "address"
        },
        {
          "indexed": false,
          "internalType": "uint256",
          "name": "id",
          "type": "uint256"
        },
        {
          "indexed": false,
          "internalType": "string",
          "name": "URI",
          "type": "string"
        },
        {
          "indexed": false,
          "internalType": "uint256",
          "name": "seatNum",
          "type": "uint256"
        },
        {
          "indexed": false,
          "internalType": "uint256",
          "name": "price",
          "type": "uint256"
        }
      ],
      "name": "info",
      "type": "event"
    },
    {
      "inputs": [
        {
          "internalType": "address",
          "name": "to",
          "type": "address"
        },
        {
          "internalType": "uint256",
          "name": "tokenId",
          "type": "uint256"
        }
      ],
      "name": "approve",
      "outputs": [],
      "stateMutability": "nonpayable",
      "type": "function"
    },
    {
      "inputs": [
        {
          "internalType": "address",
          "name": "owner",
          "type": "address"
        }
      ],
      "name": "balanceOf",
      "outputs": [
        {
          "internalType": "uint256",
          "name": "",
          "type": "uint256"
        }
      ],
      "stateMutability": "view",
      "type": "function",
      "constant": true
    },
    {
      "inputs": [
        {
          "internalType": "uint256",
          "name": "tokenId",
          "type": "uint256"
        }
      ],
      "name": "getApproved",
      "outputs": [
        {
          "internalType": "address",
          "name": "",
          "type": "address"
        }
      ],
      "stateMutability": "view",
      "type": "function",
      "constant": true
    },
    {
      "inputs": [
        {
          "internalType": "address",
          "name": "owner",
          "type": "address"
        },
        {
          "internalType": "address",
          "name": "operator",
          "type": "address"
        }
      ],
      "name": "isApprovedForAll",
      "outputs": [
        {
          "internalType": "bool",
          "name": "",
          "type": "bool"
        }
      ],
      "stateMutability": "view",
      "type": "function",
      "constant": true
    },
    {
      "inputs": [],
      "name": "name",
      "outputs": [
        {
          "internalType": "string",
          "name": "",
          "type": "string"
        }
      ],
      "stateMutability": "view",
      "type": "function",
      "constant": true
    },
    {
      "inputs": [],
      "name": "owner",
      "outputs": [
        {
          "internalType": "address",
          "name": "",
          "type": "address"
        }
      ],
      "stateMutability": "view",
      "type": "function",
      "constant": true
    },
    {
      "inputs": [
        {
          "internalType": "uint256",
          "name": "tokenId",
          "type": "uint256"
        }
      ],
      "name": "ownerOf",
      "outputs": [
        {
          "internalType": "address",
          "name": "",
          "type": "address"
        }
      ],
      "stateMutability": "view",
      "type": "function",
      "constant": true
    },
    {
      "inputs": [],
      "name": "renounceOwnership",
      "outputs": [],
      "stateMutability": "nonpayable",
      "type": "function"
    },
    {
      "inputs": [
        {
          "internalType": "address",
          "name": "from",
          "type": "address"
        },
        {
          "internalType": "address",
          "name": "to",
          "type": "address"
        },
        {
          "internalType": "uint256",
          "name": "tokenId",
          "type": "uint256"
        }
      ],
      "name": "safeTransferFrom",
      "outputs": [],
      "stateMutability": "nonpayable",
      "type": "function"
    },
    {
      "inputs": [
        {
          "internalType": "address",
          "name": "from",
          "type": "address"
        },
        {
          "internalType": "address",
          "name": "to",
          "type": "address"
        },
        {
          "internalType": "uint256",
          "name": "tokenId",
          "type": "uint256"
        },
        {
          "internalType": "bytes",
          "name": "_data",
          "type": "bytes"
        }
      ],
      "name": "safeTransferFrom",
      "outputs": [],
      "stateMutability": "nonpayable",
      "type": "function"
    },
    {
      "inputs": [
        {
          "internalType": "address",
          "name": "operator",
          "type": "address"
        },
        {
          "internalType": "bool",
          "name": "approved",
          "type": "bool"
        }
      ],
      "name": "setApprovalForAll",
      "outputs": [],
      "stateMutability": "nonpayable",
      "type": "function"
    },
    {
      "inputs": [],
      "name": "symbol",
      "outputs": [
        {
          "internalType": "string",
          "name": "",
          "type": "string"
        }
      ],
      "stateMutability": "view",
      "type": "function",
      "constant": true
    },
    {
      "inputs": [
        {
          "internalType": "uint256",
          "name": "index",
          "type": "uint256"
        }
      ],
      "name": "tokenByIndex",
      "outputs": [
        {
          "internalType": "uint256",
          "name": "",
          "type": "uint256"
        }
      ],
      "stateMutability": "view",
      "type": "function",
      "constant": true
    },
    {
      "inputs": [
        {
          "internalType": "address",
          "name": "owner",
          "type": "address"
        },
        {
          "internalType": "uint256",
          "name": "index",
          "type": "uint256"
        }
      ],
      "name": "tokenOfOwnerByIndex",
      "outputs": [
        {
          "internalType": "uint256",
          "name": "",
          "type": "uint256"
        }
      ],
      "stateMutability": "view",
      "type": "function",
      "constant": true
    },
    {
      "inputs": [],
      "name": "totalSupply",
      "outputs": [
        {
          "internalType": "uint256",
          "name": "",
          "type": "uint256"
        }
      ],
      "stateMutability": "view",
      "type": "function",
      "constant": true
    },
    {
      "inputs": [
        {
          "internalType": "address",
          "name": "from",
          "type": "address"
        },
        {
          "internalType": "address",
          "name": "to",
          "type": "address"
        },
        {
          "internalType": "uint256",
          "name": "tokenId",
          "type": "uint256"
        }
      ],
      "name": "transferFrom",
      "outputs": [],
      "stateMutability": "nonpayable",
      "type": "function"
    },
    {
      "inputs": [
        {
          "internalType": "address",
          "name": "newOwner",
          "type": "address"
        }
      ],
      "name": "transferOwnership",
      "outputs": [],
      "stateMutability": "nonpayable",
      "type": "function"
    },
    {
      "inputs": [
        {
          "internalType": "uint256",
          "name": "tokenId",
          "type": "uint256"
        }
      ],
      "name": "tokenURI",
      "outputs": [
        {
          "internalType": "string",
          "name": "",
          "type": "string"
        }
      ],
      "stateMutability": "view",
      "type": "function",
      "constant": true
    },
    {
      "inputs": [
        {
          "internalType": "bytes4",
          "name": "interfaceId",
          "type": "bytes4"
        }
      ],
      "name": "supportsInterface",
      "outputs": [
        {
          "internalType": "bool",
          "name": "",
          "type": "bool"
        }
      ],
      "stateMutability": "view",
      "type": "function",
      "constant": true
    },
    {
      "inputs": [
        {
          "internalType": "string",
          "name": "concertId",
          "type": "string"
        },
        {
          "internalType": "uint256",
          "name": "seetnum",
          "type": "uint256"
        }
      ],
      "name": "ticketIdOfConcertSeatnum",
      "outputs": [
        {
          "internalType": "uint256",
          "name": "",
          "type": "uint256"
        }
      ],
      "stateMutability": "view",
      "type": "function",
      "constant": true
    },
    {
      "inputs": [
        {
          "internalType": "uint256",
          "name": "tokenId",
          "type": "uint256"
        }
      ],
      "name": "ticketPrices",
      "outputs": [
        {
          "internalType": "uint256",
          "name": "",
          "type": "uint256"
        }
      ],
      "stateMutability": "view",
      "type": "function",
      "constant": true
    },
    {
      "inputs": [
        {
          "internalType": "uint256",
          "name": "tokenId",
          "type": "uint256"
        }
      ],
      "name": "ticketSeatnum",
      "outputs": [
        {
          "internalType": "uint256",
          "name": "",
          "type": "uint256"
        }
      ],
      "stateMutability": "view",
      "type": "function",
      "constant": true
    },
    {
      "inputs": [
        {
          "internalType": "address",
          "name": "owner",
          "type": "address"
        },
        {
          "internalType": "string",
          "name": "metadataURI",
          "type": "string"
        },
        {
          "internalType": "string",
          "name": "concertId",
          "type": "string"
        },
        {
          "internalType": "uint256",
          "name": "seatnum",
          "type": "uint256"
        },
        {
          "internalType": "uint256",
          "name": "price",
          "type": "uint256"
        }
      ],
      "name": "mintTicketToken",
      "outputs": [
        {
          "internalType": "uint256",
          "name": "",
          "type": "uint256"
        }
      ],
      "stateMutability": "nonpayable",
      "type": "function"
    }
  ],
  "bytecode": "0x60806040523480156200001157600080fd5b506040518060400160405280600981526020017f4254535469636b657400000000000000000000000000000000000000000000008152506040518060400160405280600381526020017f4254530000000000000000000000000000000000000000000000000000000000815250816000908051906020019062000096929190620001a6565b508060019080519060200190620000af929190620001a6565b505050620000d2620000c6620000d860201b60201c565b620000e060201b60201c565b620002ba565b600033905090565b6000600b60009054906101000a900473ffffffffffffffffffffffffffffffffffffffff16905081600b60006101000a81548173ffffffffffffffffffffffffffffffffffffffff021916908373ffffffffffffffffffffffffffffffffffffffff1602179055508173ffffffffffffffffffffffffffffffffffffffff168173ffffffffffffffffffffffffffffffffffffffff167f8be0079c531659141344cd1fd0a4f28419497f9722a3daafe3b4186f6b6457e060405160405180910390a35050565b828054620001b49062000285565b90600052602060002090601f016020900481019282620001d8576000855562000224565b82601f10620001f357805160ff191683800117855562000224565b8280016001018555821562000224579182015b828111156200022357825182559160200191906001019062000206565b5b50905062000233919062000237565b5090565b5b808211156200025257600081600090555060010162000238565b5090565b7f4e487b7100000000000000000000000000000000000000000000000000000000600052602260045260246000fd5b600060028204905060018216806200029e57607f821691505b602082108103620002b457620002b362000256565b5b50919050565b613ce780620002ca6000396000f3fe608060405234801561001057600080fd5b506004361061014d5760003560e01c80635338a9fe116100c3578063a22cb4651161007c578063a22cb465146103d8578063b88d4fde146103f4578063c87b56dd14610410578063e44d311b14610440578063e985e9c514610470578063f2fde38b146104a05761014d565b80635338a9fe146103025780636352211e1461033257806370a0823114610362578063715018a6146103925780638da5cb5b1461039c57806395d89b41146103ba5761014d565b806318160ddd1161011557806318160ddd1461021c57806323b872dd1461023a5780632f745c59146102565780633f87ff801461028657806342842e0e146102b65780634f6ccce7146102d25761014d565b806301ffc9a71461015257806306fdde0314610182578063081812fc146101a0578063095ea7b3146101d05780630a95513a146101ec575b600080fd5b61016c600480360381019061016791906125e5565b6104bc565b604051610179919061262d565b60405180910390f35b61018a6104ce565b60405161019791906126e1565b60405180910390f35b6101ba60048036038101906101b59190612739565b610560565b6040516101c791906127a7565b60405180910390f35b6101ea60048036038101906101e591906127ee565b6105e5565b005b61020660048036038101906102019190612739565b6106fc565b604051610213919061283d565b60405180910390f35b610224610719565b604051610231919061283d565b60405180910390f35b610254600480360381019061024f9190612858565b610726565b005b610270600480360381019061026b91906127ee565b610786565b60405161027d919061283d565b60405180910390f35b6102a0600480360381019061029b91906129e0565b61082b565b6040516102ad919061283d565b60405180910390f35b6102d060048036038101906102cb9190612858565b6108c4565b005b6102ec60048036038101906102e79190612739565b6108e4565b6040516102f9919061283d565b60405180910390f35b61031c60048036038101906103179190612a93565b610955565b604051610329919061283d565b60405180910390f35b61034c60048036038101906103479190612739565b61098f565b60405161035991906127a7565b60405180910390f35b61037c60048036038101906103779190612aef565b610a40565b604051610389919061283d565b60405180910390f35b61039a610af7565b005b6103a4610b7f565b6040516103b191906127a7565b60405180910390f35b6103c2610ba9565b6040516103cf91906126e1565b60405180910390f35b6103f260048036038101906103ed9190612b48565b610c3b565b005b61040e60048036038101906104099190612c29565b610c51565b005b61042a60048036038101906104259190612739565b610cb3565b60405161043791906126e1565b60405180910390f35b61045a60048036038101906104559190612739565b610cc5565b604051610467919061283d565b60405180910390f35b61048a60048036038101906104859190612cac565b610ce2565b604051610497919061262d565b60405180910390f35b6104ba60048036038101906104b59190612aef565b610d76565b005b60006104c782610e6d565b9050919050565b6060600080546104dd90612d1b565b80601f016020809104026020016040519081016040528092919081815260200182805461050990612d1b565b80156105565780601f1061052b57610100808354040283529160200191610556565b820191906000526020600020905b81548152906001019060200180831161053957829003601f168201915b5050505050905090565b600061056b82610ee7565b6105aa576040517f08c379a00000000000000000000000000000000000000000000000000000000081526004016105a190612dbe565b60405180910390fd5b6004600083815260200190815260200160002060009054906101000a900473ffffffffffffffffffffffffffffffffffffffff169050919050565b60006105f08261098f565b90508073ffffffffffffffffffffffffffffffffffffffff168373ffffffffffffffffffffffffffffffffffffffff1603610660576040517f08c379a000000000000000000000000000000000000000000000000000000000815260040161065790612e50565b60405180910390fd5b8073ffffffffffffffffffffffffffffffffffffffff1661067f610f53565b73ffffffffffffffffffffffffffffffffffffffff1614806106ae57506106ad816106a8610f53565b610ce2565b5b6106ed576040517f08c379a00000000000000000000000000000000000000000000000000000000081526004016106e490612ee2565b60405180910390fd5b6106f78383610f5b565b505050565b6000600f6000838152602001908152602001600020549050919050565b6000600980549050905090565b610737610731610f53565b82611014565b610776576040517f08c379a000000000000000000000000000000000000000000000000000000000815260040161076d90612f74565b60405180910390fd5b6107818383836110f2565b505050565b600061079183610a40565b82106107d2576040517f08c379a00000000000000000000000000000000000000000000000000000000081526004016107c990613006565b60405180910390fd5b600760008473ffffffffffffffffffffffffffffffffffffffff1673ffffffffffffffffffffffffffffffffffffffff168152602001908152602001600020600083815260200190815260200160002054905092915050565b6000610837600c611358565b6000610843600c61136e565b905061084f878261137c565b610859818761139a565b61086485858361140e565b61086e818461148f565b61087881856114f3565b7fe3617dab2a09142996db81f25476768309e1b0f16112b944217e65872c0072d487828887876040516108af959493929190613072565b60405180910390a18091505095945050505050565b6108df83838360405180602001604052806000815250610c51565b505050565b60006108ee610719565b821061092f576040517f08c379a000000000000000000000000000000000000000000000000000000000815260040161092690613151565b60405180910390fd5b6009828154811061094357610942613171565b5b90600052602060002001549050919050565b6000600d8360405161096791906131dc565b9081526020016040518091039020600083815260200190815260200160002054905092915050565b6000806002600084815260200190815260200160002060009054906101000a900473ffffffffffffffffffffffffffffffffffffffff169050600073ffffffffffffffffffffffffffffffffffffffff168173ffffffffffffffffffffffffffffffffffffffff1603610a37576040517f08c379a0000000000000000000000000000000000000000000000000000000008152600401610a2e90613265565b60405180910390fd5b80915050919050565b60008073ffffffffffffffffffffffffffffffffffffffff168273ffffffffffffffffffffffffffffffffffffffff1603610ab0576040517f08c379a0000000000000000000000000000000000000000000000000000000008152600401610aa7906132f7565b60405180910390fd5b600360008373ffffffffffffffffffffffffffffffffffffffff1673ffffffffffffffffffffffffffffffffffffffff168152602001908152602001600020549050919050565b610aff610f53565b73ffffffffffffffffffffffffffffffffffffffff16610b1d610b7f565b73ffffffffffffffffffffffffffffffffffffffff1614610b73576040517f08c379a0000000000000000000000000000000000000000000000000000000008152600401610b6a90613363565b60405180910390fd5b610b7d6000611557565b565b6000600b60009054906101000a900473ffffffffffffffffffffffffffffffffffffffff16905090565b606060018054610bb890612d1b565b80601f0160208091040260200160405190810160405280929190818152602001828054610be490612d1b565b8015610c315780601f10610c0657610100808354040283529160200191610c31565b820191906000526020600020905b815481529060010190602001808311610c1457829003601f168201915b5050505050905090565b610c4d610c46610f53565b838361161d565b5050565b610c62610c5c610f53565b83611014565b610ca1576040517f08c379a0000000000000000000000000000000000000000000000000000000008152600401610c9890612f74565b60405180910390fd5b610cad84848484611789565b50505050565b6060610cbe826117e5565b9050919050565b6000600e6000838152602001908152602001600020549050919050565b6000600560008473ffffffffffffffffffffffffffffffffffffffff1673ffffffffffffffffffffffffffffffffffffffff16815260200190815260200160002060008373ffffffffffffffffffffffffffffffffffffffff1673ffffffffffffffffffffffffffffffffffffffff16815260200190815260200160002060009054906101000a900460ff16905092915050565b610d7e610f53565b73ffffffffffffffffffffffffffffffffffffffff16610d9c610b7f565b73ffffffffffffffffffffffffffffffffffffffff1614610df2576040517f08c379a0000000000000000000000000000000000000000000000000000000008152600401610de990613363565b60405180910390fd5b600073ffffffffffffffffffffffffffffffffffffffff168173ffffffffffffffffffffffffffffffffffffffff1603610e61576040517f08c379a0000000000000000000000000000000000000000000000000000000008152600401610e58906133f5565b60405180910390fd5b610e6a81611557565b50565b60007f780e9d63000000000000000000000000000000000000000000000000000000007bffffffffffffffffffffffffffffffffffffffffffffffffffffffff1916827bffffffffffffffffffffffffffffffffffffffffffffffffffffffff19161480610ee05750610edf82611936565b5b9050919050565b60008073ffffffffffffffffffffffffffffffffffffffff166002600084815260200190815260200160002060009054906101000a900473ffffffffffffffffffffffffffffffffffffffff1673ffffffffffffffffffffffffffffffffffffffff1614159050919050565b600033905090565b816004600083815260200190815260200160002060006101000a81548173ffffffffffffffffffffffffffffffffffffffff021916908373ffffffffffffffffffffffffffffffffffffffff160217905550808273ffffffffffffffffffffffffffffffffffffffff16610fce8361098f565b73ffffffffffffffffffffffffffffffffffffffff167f8c5be1e5ebec7d5bd14f71427d1e84f3dd0314c0f7b2291e5b200ac8c7c3b92560405160405180910390a45050565b600061101f82610ee7565b61105e576040517f08c379a000000000000000000000000000000000000000000000000000000000815260040161105590613487565b60405180910390fd5b60006110698361098f565b90508073ffffffffffffffffffffffffffffffffffffffff168473ffffffffffffffffffffffffffffffffffffffff1614806110ab57506110aa8185610ce2565b5b806110e957508373ffffffffffffffffffffffffffffffffffffffff166110d184610560565b73ffffffffffffffffffffffffffffffffffffffff16145b91505092915050565b8273ffffffffffffffffffffffffffffffffffffffff166111128261098f565b73ffffffffffffffffffffffffffffffffffffffff1614611168576040517f08c379a000000000000000000000000000000000000000000000000000000000815260040161115f90613519565b60405180910390fd5b600073ffffffffffffffffffffffffffffffffffffffff168273ffffffffffffffffffffffffffffffffffffffff16036111d7576040517f08c379a00000000000000000000000000000000000000000000000000000000081526004016111ce906135ab565b60405180910390fd5b6111e2838383611a18565b6111ed600082610f5b565b6001600360008573ffffffffffffffffffffffffffffffffffffffff1673ffffffffffffffffffffffffffffffffffffffff168152602001908152602001600020600082825461123d91906135fa565b925050819055506001600360008473ffffffffffffffffffffffffffffffffffffffff1673ffffffffffffffffffffffffffffffffffffffff1681526020019081526020016000206000828254611294919061362e565b92505081905550816002600083815260200190815260200160002060006101000a81548173ffffffffffffffffffffffffffffffffffffffff021916908373ffffffffffffffffffffffffffffffffffffffff160217905550808273ffffffffffffffffffffffffffffffffffffffff168473ffffffffffffffffffffffffffffffffffffffff167fddf252ad1be2c89b69c2b068fc378daa952ba7f163c4a11628f55a4df523b3ef60405160405180910390a4611353838383611a28565b505050565b6001816000016000828254019250508190555050565b600081600001549050919050565b611396828260405180602001604052806000815250611a2d565b5050565b6113a382610ee7565b6113e2576040517f08c379a00000000000000000000000000000000000000000000000000000000081526004016113d9906136f6565b60405180910390fd5b806006600084815260200190815260200160002090805190602001906114099291906124d6565b505050565b61141781610ee7565b611456576040517f08c379a000000000000000000000000000000000000000000000000000000000815260040161144d90613788565b60405180910390fd5b80600d8460405161146791906131dc565b9081526020016040518091039020600084815260200190815260200160002081905550505050565b61149882610ee7565b6114d7576040517f08c379a00000000000000000000000000000000000000000000000000000000081526004016114ce90613788565b60405180910390fd5b80600e6000848152602001908152602001600020819055505050565b6114fc82610ee7565b61153b576040517f08c379a000000000000000000000000000000000000000000000000000000000815260040161153290613788565b60405180910390fd5b80600f6000848152602001908152602001600020819055505050565b6000600b60009054906101000a900473ffffffffffffffffffffffffffffffffffffffff16905081600b60006101000a81548173ffffffffffffffffffffffffffffffffffffffff021916908373ffffffffffffffffffffffffffffffffffffffff1602179055508173ffffffffffffffffffffffffffffffffffffffff168173ffffffffffffffffffffffffffffffffffffffff167f8be0079c531659141344cd1fd0a4f28419497f9722a3daafe3b4186f6b6457e060405160405180910390a35050565b8173ffffffffffffffffffffffffffffffffffffffff168373ffffffffffffffffffffffffffffffffffffffff160361168b576040517f08c379a0000000000000000000000000000000000000000000000000000000008152600401611682906137f4565b60405180910390fd5b80600560008573ffffffffffffffffffffffffffffffffffffffff1673ffffffffffffffffffffffffffffffffffffffff16815260200190815260200160002060008473ffffffffffffffffffffffffffffffffffffffff1673ffffffffffffffffffffffffffffffffffffffff16815260200190815260200160002060006101000a81548160ff0219169083151502179055508173ffffffffffffffffffffffffffffffffffffffff168373ffffffffffffffffffffffffffffffffffffffff167f17307eab39ab6107e8899845ad3d59bd9653f200f220920489ca2b5937696c318360405161177c919061262d565b60405180910390a3505050565b6117948484846110f2565b6117a084848484611a88565b6117df576040517f08c379a00000000000000000000000000000000000000000000000000000000081526004016117d690613886565b60405180910390fd5b50505050565b60606117f082610ee7565b61182f576040517f08c379a000000000000000000000000000000000000000000000000000000000815260040161182690613918565b60405180910390fd5b600060066000848152602001908152602001600020805461184f90612d1b565b80601f016020809104026020016040519081016040528092919081815260200182805461187b90612d1b565b80156118c85780601f1061189d576101008083540402835291602001916118c8565b820191906000526020600020905b8154815290600101906020018083116118ab57829003601f168201915b5050505050905060006118d9611c0f565b905060008151036118ee578192505050611931565b60008251111561192357808260405160200161190b929190613938565b60405160208183030381529060405292505050611931565b61192c84611c4c565b925050505b919050565b60007f80ac58cd000000000000000000000000000000000000000000000000000000007bffffffffffffffffffffffffffffffffffffffffffffffffffffffff1916827bffffffffffffffffffffffffffffffffffffffffffffffffffffffff19161480611a0157507f5b5e139f000000000000000000000000000000000000000000000000000000007bffffffffffffffffffffffffffffffffffffffffffffffffffffffff1916827bffffffffffffffffffffffffffffffffffffffffffffffffffffffff1916145b80611a115750611a1082611cf3565b5b9050919050565b611a23838383611d5d565b505050565b505050565b611a378383611e6f565b611a446000848484611a88565b611a83576040517f08c379a0000000000000000000000000000000000000000000000000000000008152600401611a7a90613886565b60405180910390fd5b505050565b6000611aa98473ffffffffffffffffffffffffffffffffffffffff16612048565b15611c02578373ffffffffffffffffffffffffffffffffffffffff1663150b7a02611ad2610f53565b8786866040518563ffffffff1660e01b8152600401611af494939291906139b1565b6020604051808303816000875af1925050508015611b3057506040513d601f19601f82011682018060405250810190611b2d9190613a12565b60015b611bb2573d8060008114611b60576040519150601f19603f3d011682016040523d82523d6000602084013e611b65565b606091505b506000815103611baa576040517f08c379a0000000000000000000000000000000000000000000000000000000008152600401611ba190613886565b60405180910390fd5b805181602001fd5b63150b7a0260e01b7bffffffffffffffffffffffffffffffffffffffffffffffffffffffff1916817bffffffffffffffffffffffffffffffffffffffffffffffffffffffff191614915050611c07565b600190505b949350505050565b60606040518060400160405280601581526020017f68747470733a2f2f697066732e696f2f697066732f0000000000000000000000815250905090565b6060611c5782610ee7565b611c96576040517f08c379a0000000000000000000000000000000000000000000000000000000008152600401611c8d90613ab1565b60405180910390fd5b6000611ca0611c0f565b90506000815111611cc05760405180602001604052806000815250611ceb565b80611cca8461206b565b604051602001611cdb929190613938565b6040516020818303038152906040525b915050919050565b60007f01ffc9a7000000000000000000000000000000000000000000000000000000007bffffffffffffffffffffffffffffffffffffffffffffffffffffffff1916827bffffffffffffffffffffffffffffffffffffffffffffffffffffffff1916149050919050565b611d688383836121cb565b600073ffffffffffffffffffffffffffffffffffffffff168373ffffffffffffffffffffffffffffffffffffffff1603611daa57611da5816121d0565b611de9565b8173ffffffffffffffffffffffffffffffffffffffff168373ffffffffffffffffffffffffffffffffffffffff1614611de857611de78382612219565b5b5b600073ffffffffffffffffffffffffffffffffffffffff168273ffffffffffffffffffffffffffffffffffffffff1603611e2b57611e2681612386565b611e6a565b8273ffffffffffffffffffffffffffffffffffffffff168273ffffffffffffffffffffffffffffffffffffffff1614611e6957611e688282612457565b5b5b505050565b600073ffffffffffffffffffffffffffffffffffffffff168273ffffffffffffffffffffffffffffffffffffffff1603611ede576040517f08c379a0000000000000000000000000000000000000000000000000000000008152600401611ed590613b1d565b60405180910390fd5b611ee781610ee7565b15611f27576040517f08c379a0000000000000000000000000000000000000000000000000000000008152600401611f1e90613b89565b60405180910390fd5b611f3360008383611a18565b6001600360008473ffffffffffffffffffffffffffffffffffffffff1673ffffffffffffffffffffffffffffffffffffffff1681526020019081526020016000206000828254611f83919061362e565b92505081905550816002600083815260200190815260200160002060006101000a81548173ffffffffffffffffffffffffffffffffffffffff021916908373ffffffffffffffffffffffffffffffffffffffff160217905550808273ffffffffffffffffffffffffffffffffffffffff16600073ffffffffffffffffffffffffffffffffffffffff167fddf252ad1be2c89b69c2b068fc378daa952ba7f163c4a11628f55a4df523b3ef60405160405180910390a461204460008383611a28565b5050565b6000808273ffffffffffffffffffffffffffffffffffffffff163b119050919050565b6060600082036120b2576040518060400160405280600181526020017f300000000000000000000000000000000000000000000000000000000000000081525090506121c6565b600082905060005b600082146120e45780806120cd90613ba9565b915050600a826120dd9190613c20565b91506120ba565b60008167ffffffffffffffff811115612100576120ff6128b5565b5b6040519080825280601f01601f1916602001820160405280156121325781602001600182028036833780820191505090505b5090505b600085146121bf5760018261214b91906135fa565b9150600a8561215a9190613c51565b6030612166919061362e565b60f81b81838151811061217c5761217b613171565b5b60200101907effffffffffffffffffffffffffffffffffffffffffffffffffffffffffffff1916908160001a905350600a856121b89190613c20565b9450612136565b8093505050505b919050565b505050565b600980549050600a600083815260200190815260200160002081905550600981908060018154018082558091505060019003906000526020600020016000909190919091505550565b6000600161222684610a40565b61223091906135fa565b9050600060086000848152602001908152602001600020549050818114612315576000600760008673ffffffffffffffffffffffffffffffffffffffff1673ffffffffffffffffffffffffffffffffffffffff168152602001908152602001600020600084815260200190815260200160002054905080600760008773ffffffffffffffffffffffffffffffffffffffff1673ffffffffffffffffffffffffffffffffffffffff168152602001908152602001600020600084815260200190815260200160002081905550816008600083815260200190815260200160002081905550505b6008600084815260200190815260200160002060009055600760008573ffffffffffffffffffffffffffffffffffffffff1673ffffffffffffffffffffffffffffffffffffffff16815260200190815260200160002060008381526020019081526020016000206000905550505050565b6000600160098054905061239a91906135fa565b90506000600a60008481526020019081526020016000205490506000600983815481106123ca576123c9613171565b5b9060005260206000200154905080600983815481106123ec576123eb613171565b5b906000526020600020018190555081600a600083815260200190815260200160002081905550600a600085815260200190815260200160002060009055600980548061243b5761243a613c82565b5b6001900381819060005260206000200160009055905550505050565b600061246283610a40565b905081600760008573ffffffffffffffffffffffffffffffffffffffff1673ffffffffffffffffffffffffffffffffffffffff168152602001908152602001600020600083815260200190815260200160002081905550806008600084815260200190815260200160002081905550505050565b8280546124e290612d1b565b90600052602060002090601f016020900481019282612504576000855561254b565b82601f1061251d57805160ff191683800117855561254b565b8280016001018555821561254b579182015b8281111561254a57825182559160200191906001019061252f565b5b509050612558919061255c565b5090565b5b8082111561257557600081600090555060010161255d565b5090565b6000604051905090565b600080fd5b600080fd5b60007fffffffff0000000000000000000000000000000000000000000000000000000082169050919050565b6125c28161258d565b81146125cd57600080fd5b50565b6000813590506125df816125b9565b92915050565b6000602082840312156125fb576125fa612583565b5b6000612609848285016125d0565b91505092915050565b60008115159050919050565b61262781612612565b82525050565b6000602082019050612642600083018461261e565b92915050565b600081519050919050565b600082825260208201905092915050565b60005b83811015612682578082015181840152602081019050612667565b83811115612691576000848401525b50505050565b6000601f19601f8301169050919050565b60006126b382612648565b6126bd8185612653565b93506126cd818560208601612664565b6126d681612697565b840191505092915050565b600060208201905081810360008301526126fb81846126a8565b905092915050565b6000819050919050565b61271681612703565b811461272157600080fd5b50565b6000813590506127338161270d565b92915050565b60006020828403121561274f5761274e612583565b5b600061275d84828501612724565b91505092915050565b600073ffffffffffffffffffffffffffffffffffffffff82169050919050565b600061279182612766565b9050919050565b6127a181612786565b82525050565b60006020820190506127bc6000830184612798565b92915050565b6127cb81612786565b81146127d657600080fd5b50565b6000813590506127e8816127c2565b92915050565b6000806040838503121561280557612804612583565b5b6000612813858286016127d9565b925050602061282485828601612724565b9150509250929050565b61283781612703565b82525050565b6000602082019050612852600083018461282e565b92915050565b60008060006060848603121561287157612870612583565b5b600061287f868287016127d9565b9350506020612890868287016127d9565b92505060406128a186828701612724565b9150509250925092565b600080fd5b600080fd5b7f4e487b7100000000000000000000000000000000000000000000000000000000600052604160045260246000fd5b6128ed82612697565b810181811067ffffffffffffffff8211171561290c5761290b6128b5565b5b80604052505050565b600061291f612579565b905061292b82826128e4565b919050565b600067ffffffffffffffff82111561294b5761294a6128b5565b5b61295482612697565b9050602081019050919050565b82818337600083830152505050565b600061298361297e84612930565b612915565b90508281526020810184848401111561299f5761299e6128b0565b5b6129aa848285612961565b509392505050565b600082601f8301126129c7576129c66128ab565b5b81356129d7848260208601612970565b91505092915050565b600080600080600060a086880312156129fc576129fb612583565b5b6000612a0a888289016127d9565b955050602086013567ffffffffffffffff811115612a2b57612a2a612588565b5b612a37888289016129b2565b945050604086013567ffffffffffffffff811115612a5857612a57612588565b5b612a64888289016129b2565b9350506060612a7588828901612724565b9250506080612a8688828901612724565b9150509295509295909350565b60008060408385031215612aaa57612aa9612583565b5b600083013567ffffffffffffffff811115612ac857612ac7612588565b5b612ad4858286016129b2565b9250506020612ae585828601612724565b9150509250929050565b600060208284031215612b0557612b04612583565b5b6000612b13848285016127d9565b91505092915050565b612b2581612612565b8114612b3057600080fd5b50565b600081359050612b4281612b1c565b92915050565b60008060408385031215612b5f57612b5e612583565b5b6000612b6d858286016127d9565b9250506020612b7e85828601612b33565b9150509250929050565b600067ffffffffffffffff821115612ba357612ba26128b5565b5b612bac82612697565b9050602081019050919050565b6000612bcc612bc784612b88565b612915565b905082815260208101848484011115612be857612be76128b0565b5b612bf3848285612961565b509392505050565b600082601f830112612c1057612c0f6128ab565b5b8135612c20848260208601612bb9565b91505092915050565b60008060008060808587031215612c4357612c42612583565b5b6000612c51878288016127d9565b9450506020612c62878288016127d9565b9350506040612c7387828801612724565b925050606085013567ffffffffffffffff811115612c9457612c93612588565b5b612ca087828801612bfb565b91505092959194509250565b60008060408385031215612cc357612cc2612583565b5b6000612cd1858286016127d9565b9250506020612ce2858286016127d9565b9150509250929050565b7f4e487b7100000000000000000000000000000000000000000000000000000000600052602260045260246000fd5b60006002820490506001821680612d3357607f821691505b602082108103612d4657612d45612cec565b5b50919050565b7f4552433732313a20617070726f76656420717565727920666f72206e6f6e657860008201527f697374656e7420746f6b656e0000000000000000000000000000000000000000602082015250565b6000612da8602c83612653565b9150612db382612d4c565b604082019050919050565b60006020820190508181036000830152612dd781612d9b565b9050919050565b7f4552433732313a20617070726f76616c20746f2063757272656e74206f776e6560008201527f7200000000000000000000000000000000000000000000000000000000000000602082015250565b6000612e3a602183612653565b9150612e4582612dde565b604082019050919050565b60006020820190508181036000830152612e6981612e2d565b9050919050565b7f4552433732313a20617070726f76652063616c6c6572206973206e6f74206f7760008201527f6e6572206e6f7220617070726f76656420666f7220616c6c0000000000000000602082015250565b6000612ecc603883612653565b9150612ed782612e70565b604082019050919050565b60006020820190508181036000830152612efb81612ebf565b9050919050565b7f4552433732313a207472616e736665722063616c6c6572206973206e6f74206f60008201527f776e6572206e6f7220617070726f766564000000000000000000000000000000602082015250565b6000612f5e603183612653565b9150612f6982612f02565b604082019050919050565b60006020820190508181036000830152612f8d81612f51565b9050919050565b7f455243373231456e756d657261626c653a206f776e657220696e646578206f7560008201527f74206f6620626f756e6473000000000000000000000000000000000000000000602082015250565b6000612ff0602b83612653565b9150612ffb82612f94565b604082019050919050565b6000602082019050818103600083015261301f81612fe3565b9050919050565b7f496e20736f6c203a2073756363657373206d696e74696e672100000000000000600082015250565b600061305c601983612653565b915061306782613026565b602082019050919050565b600060c082019050818103600083015261308b8161304f565b905061309a6020830188612798565b6130a7604083018761282e565b81810360608301526130b981866126a8565b90506130c8608083018561282e565b6130d560a083018461282e565b9695505050505050565b7f455243373231456e756d657261626c653a20676c6f62616c20696e646578206f60008201527f7574206f6620626f756e64730000000000000000000000000000000000000000602082015250565b600061313b602c83612653565b9150613146826130df565b604082019050919050565b6000602082019050818103600083015261316a8161312e565b9050919050565b7f4e487b7100000000000000000000000000000000000000000000000000000000600052603260045260246000fd5b600081905092915050565b60006131b682612648565b6131c081856131a0565b93506131d0818560208601612664565b80840191505092915050565b60006131e882846131ab565b915081905092915050565b7f4552433732313a206f776e657220717565727920666f72206e6f6e657869737460008201527f656e7420746f6b656e0000000000000000000000000000000000000000000000602082015250565b600061324f602983612653565b915061325a826131f3565b604082019050919050565b6000602082019050818103600083015261327e81613242565b9050919050565b7f4552433732313a2062616c616e636520717565727920666f7220746865207a6560008201527f726f206164647265737300000000000000000000000000000000000000000000602082015250565b60006132e1602a83612653565b91506132ec82613285565b604082019050919050565b60006020820190508181036000830152613310816132d4565b9050919050565b7f4f776e61626c653a2063616c6c6572206973206e6f7420746865206f776e6572600082015250565b600061334d602083612653565b915061335882613317565b602082019050919050565b6000602082019050818103600083015261337c81613340565b9050919050565b7f4f776e61626c653a206e6577206f776e657220697320746865207a65726f206160008201527f6464726573730000000000000000000000000000000000000000000000000000602082015250565b60006133df602683612653565b91506133ea82613383565b604082019050919050565b6000602082019050818103600083015261340e816133d2565b9050919050565b7f4552433732313a206f70657261746f7220717565727920666f72206e6f6e657860008201527f697374656e7420746f6b656e0000000000000000000000000000000000000000602082015250565b6000613471602c83612653565b915061347c82613415565b604082019050919050565b600060208201905081810360008301526134a081613464565b9050919050565b7f4552433732313a207472616e736665722066726f6d20696e636f72726563742060008201527f6f776e6572000000000000000000000000000000000000000000000000000000602082015250565b6000613503602583612653565b915061350e826134a7565b604082019050919050565b60006020820190508181036000830152613532816134f6565b9050919050565b7f4552433732313a207472616e7366657220746f20746865207a65726f2061646460008201527f7265737300000000000000000000000000000000000000000000000000000000602082015250565b6000613595602483612653565b91506135a082613539565b604082019050919050565b600060208201905081810360008301526135c481613588565b9050919050565b7f4e487b7100000000000000000000000000000000000000000000000000000000600052601160045260246000fd5b600061360582612703565b915061361083612703565b925082821015613623576136226135cb565b5b828203905092915050565b600061363982612703565b915061364483612703565b9250827fffffffffffffffffffffffffffffffffffffffffffffffffffffffffffffffff03821115613679576136786135cb565b5b828201905092915050565b7f45524337323155524953746f726167653a2055524920736574206f66206e6f6e60008201527f6578697374656e7420746f6b656e000000000000000000000000000000000000602082015250565b60006136e0602e83612653565b91506136eb82613684565b604082019050919050565b6000602082019050818103600083015261370f816136d3565b9050919050565b7f4d496e745469636b6574546f6b656e3a2055524920736574206f66206e6f6e6560008201527f78697374656e7420746f6b656e00000000000000000000000000000000000000602082015250565b6000613772602d83612653565b915061377d82613716565b604082019050919050565b600060208201905081810360008301526137a181613765565b9050919050565b7f4552433732313a20617070726f766520746f2063616c6c657200000000000000600082015250565b60006137de601983612653565b91506137e9826137a8565b602082019050919050565b6000602082019050818103600083015261380d816137d1565b9050919050565b7f4552433732313a207472616e7366657220746f206e6f6e20455243373231526560008201527f63656976657220696d706c656d656e7465720000000000000000000000000000602082015250565b6000613870603283612653565b915061387b82613814565b604082019050919050565b6000602082019050818103600083015261389f81613863565b9050919050565b7f45524337323155524953746f726167653a2055524920717565727920666f722060008201527f6e6f6e6578697374656e7420746f6b656e000000000000000000000000000000602082015250565b6000613902603183612653565b915061390d826138a6565b604082019050919050565b60006020820190508181036000830152613931816138f5565b9050919050565b600061394482856131ab565b915061395082846131ab565b91508190509392505050565b600081519050919050565b600082825260208201905092915050565b60006139838261395c565b61398d8185613967565b935061399d818560208601612664565b6139a681612697565b840191505092915050565b60006080820190506139c66000830187612798565b6139d36020830186612798565b6139e0604083018561282e565b81810360608301526139f28184613978565b905095945050505050565b600081519050613a0c816125b9565b92915050565b600060208284031215613a2857613a27612583565b5b6000613a36848285016139fd565b91505092915050565b7f4552433732314d657461646174613a2055524920717565727920666f72206e6f60008201527f6e6578697374656e7420746f6b656e0000000000000000000000000000000000602082015250565b6000613a9b602f83612653565b9150613aa682613a3f565b604082019050919050565b60006020820190508181036000830152613aca81613a8e565b9050919050565b7f4552433732313a206d696e7420746f20746865207a65726f2061646472657373600082015250565b6000613b07602083612653565b9150613b1282613ad1565b602082019050919050565b60006020820190508181036000830152613b3681613afa565b9050919050565b7f4552433732313a20746f6b656e20616c7265616479206d696e74656400000000600082015250565b6000613b73601c83612653565b9150613b7e82613b3d565b602082019050919050565b60006020820190508181036000830152613ba281613b66565b9050919050565b6000613bb482612703565b91507fffffffffffffffffffffffffffffffffffffffffffffffffffffffffffffffff8203613be657613be56135cb565b5b600182019050919050565b7f4e487b7100000000000000000000000000000000000000000000000000000000600052601260045260246000fd5b6000613c2b82612703565b9150613c3683612703565b925082613c4657613c45613bf1565b5b828204905092915050565b6000613c5c82612703565b9150613c6783612703565b925082613c7757613c76613bf1565b5b828206905092915050565b7f4e487b7100000000000000000000000000000000000000000000000000000000600052603160045260246000fdfea264697066735822122015a9bb913bcf48bff28a069cff5deda0d3633c5f832ddd881af8ddb0fbf1f18164736f6c634300080d0033",
  "immutableReferences": {},
  "source": "// SPDX-License-Identifier: MIT\r\n\r\npragma solidity >=0.4.22 <0.9.0;\r\n\r\nimport \"@openzeppelin/contracts/token/ERC721/extensions/ERC721Enumerable.sol\";\r\nimport \"@openzeppelin/contracts/token/ERC721/extensions/ERC721URIStorage.sol\";\r\nimport \"@openzeppelin/contracts/utils/Counters.sol\";\r\nimport \"@openzeppelin/contracts/access/Ownable.sol\";\r\n//https://docs.openzeppelin.com/contracts/4.x/api/utils#Counters\r\ncontract MintTicketToken is ERC721URIStorage, ERC721Enumerable, Ownable{\r\n    using Counters for Counters.Counter;\r\n    Counters.Counter private _tokenIds;\r\n    //  Id\r\n    mapping(string => mapping(uint256 => uint256)) private _ticketIdOfConcertSeatnum;\r\n    //Id  \r\n    mapping(uint256 => uint256) private _ticketPrices;\r\n    //Id  \r\n    mapping(uint256 => uint256) private _ticketSeatnum;\r\n    //event\r\n    event info(string name, address own, uint256 id, string URI, uint256 seatNum, uint256 price); \r\n\r\n    function _beforeTokenTransfer(address from, address to, uint256 tokenId)\r\n        internal\r\n        override(ERC721, ERC721Enumerable)\r\n    {\r\n        super._beforeTokenTransfer(from, to, tokenId);\r\n    }\r\n\r\n    function _burn(uint256 tokenId) internal override(ERC721, ERC721URIStorage) {\r\n        super._burn(tokenId);\r\n    }\r\n\r\n    function tokenURI(uint256 tokenId)\r\n        public\r\n        view\r\n        override(ERC721, ERC721URIStorage)\r\n        returns (string memory)\r\n    {\r\n        return super.tokenURI(tokenId);\r\n    }\r\n\r\n    function supportsInterface(bytes4 interfaceId)\r\n        public\r\n        view\r\n        override(ERC721, ERC721Enumerable)\r\n        returns (bool)\r\n    {\r\n        return super.supportsInterface(interfaceId);\r\n    }\r\n\r\n    function _baseURI() internal pure override returns (string memory) {\r\n        return \"https://ipfs.io/ipfs/\";\r\n    }\r\n\r\n    constructor() ERC721(\"BTSTicket\",\"BTS\"){\r\n        //_setBaseURI(\"ipfs://\");\r\n        //_setBaseURI(\"https://ipfs.io/ipfs/\");\r\n    }\r\n\r\n    function _setTicketIdOfConcertSeatnum(string memory concertId, uint256 seatnum, uint256 tokenId) \r\n        internal\r\n        virtual\r\n    {\r\n        require(_exists(tokenId), \"MIntTicketToken: URI set of nonexistent token\");\r\n        _ticketIdOfConcertSeatnum[concertId][seatnum] = tokenId;\r\n    }\r\n\r\n    function _setTicketPrices(uint256 tokenId, uint256 price) internal virtual{\r\n        require(_exists(tokenId), \"MIntTicketToken: URI set of nonexistent token\");\r\n        _ticketPrices[tokenId] = price;\r\n    }\r\n\r\n    function _setTicketSeatnum(uint256 tokenId, uint256 seatnum) internal virtual{\r\n        require(_exists(tokenId), \"MIntTicketToken: URI set of nonexistent token\");\r\n        _ticketSeatnum[tokenId] = seatnum;\r\n    }\r\n\r\n    function ticketIdOfConcertSeatnum(string memory concertId, uint256 seetnum) \r\n        public \r\n        view \r\n        returns(uint256)\r\n    {\r\n        return _ticketIdOfConcertSeatnum[concertId][seetnum];\r\n    }\r\n\r\n    function ticketPrices(uint256 tokenId) \r\n        public \r\n        view \r\n        returns(uint256)\r\n    {\r\n        return _ticketPrices[tokenId];\r\n    }\r\n\r\n    function ticketSeatnum(uint256 tokenId) \r\n        public \r\n        view \r\n        returns(uint256)\r\n    {\r\n        return _ticketSeatnum[tokenId];\r\n    }\r\n\r\n    function mintTicketToken(address owner, string memory metadataURI, string memory concertId, uint256 seatnum, uint256 price)\r\n        public\r\n        returns(uint256)\r\n    {\r\n        _tokenIds.increment();\r\n        \r\n        uint256 id = _tokenIds.current();\r\n        _safeMint(owner, id);\r\n        _setTokenURI(id, metadataURI);\r\n        _setTicketIdOfConcertSeatnum(concertId, seatnum, id);\r\n        _setTicketPrices(id, price);\r\n        _setTicketSeatnum(id, seatnum);\r\n\r\n        emit info(\"In sol : success minting!\", owner, id, metadataURI, seatnum, price); \r\n\r\n        return id;\r\n    }\r\n}",
  "sourcePath": "C:\\Users\\82107\\github\\BTS\\truffle\\contracts\\MintTicketToken.sol",
  "compiler": {
    "name": "solc",
    "version": "0.8.13+commit.abaa5c0e.Emscripten.clang"
  },
  "schemaVersion": "3.4.7",
  "updatedAt": "2022-05-26T13:46:16.473Z",
  "networkType": "ethereum",
  "devdoc": {
    "kind": "dev",
    "methods": {
      "approve(address,uint256)": {
        "details": "See {IERC721-approve}."
      },
      "balanceOf(address)": {
        "details": "See {IERC721-balanceOf}."
      },
      "getApproved(uint256)": {
        "details": "See {IERC721-getApproved}."
      },
      "isApprovedForAll(address,address)": {
        "details": "See {IERC721-isApprovedForAll}."
      },
      "name()": {
        "details": "See {IERC721Metadata-name}."
      },
      "owner()": {
        "details": "Returns the address of the current owner."
      },
      "ownerOf(uint256)": {
        "details": "See {IERC721-ownerOf}."
      },
      "renounceOwnership()": {
        "details": "Leaves the contract without owner. It will not be possible to call `onlyOwner` functions anymore. Can only be called by the current owner. NOTE: Renouncing ownership will leave the contract without an owner, thereby removing any functionality that is only available to the owner."
      },
      "safeTransferFrom(address,address,uint256)": {
        "details": "See {IERC721-safeTransferFrom}."
      },
      "safeTransferFrom(address,address,uint256,bytes)": {
        "details": "See {IERC721-safeTransferFrom}."
      },
      "setApprovalForAll(address,bool)": {
        "details": "See {IERC721-setApprovalForAll}."
      },
      "symbol()": {
        "details": "See {IERC721Metadata-symbol}."
      },
      "tokenByIndex(uint256)": {
        "details": "See {IERC721Enumerable-tokenByIndex}."
      },
      "tokenOfOwnerByIndex(address,uint256)": {
        "details": "See {IERC721Enumerable-tokenOfOwnerByIndex}."
      },
      "totalSupply()": {
        "details": "See {IERC721Enumerable-totalSupply}."
      },
      "transferFrom(address,address,uint256)": {
        "details": "See {IERC721-transferFrom}."
      },
      "transferOwnership(address)": {
        "details": "Transfers ownership of the contract to a new account (`newOwner`). Can only be called by the current owner."
      }
    },
    "version": 1
  },
  "userdoc": {
    "kind": "user",
    "methods": {},
    "version": 1
  }
}