{
  "contractName": "MintTicketToken",
  "abi": [
    {
      "inputs": [],
      "stateMutability": "nonpayable",
      "type": "constructor"
    },
    {
      "anonymous": false,
      "inputs": [
        {
          "indexed": true,
          "internalType": "address",
          "name": "owner",
          "type": "address"
        },
        {
          "indexed": true,
          "internalType": "address",
          "name": "approved",
          "type": "address"
        },
        {
          "indexed": true,
          "internalType": "uint256",
          "name": "tokenId",
          "type": "uint256"
        }
      ],
      "name": "Approval",
      "type": "event"
    },
    {
      "anonymous": false,
      "inputs": [
        {
          "indexed": true,
          "internalType": "address",
          "name": "owner",
          "type": "address"
        },
        {
          "indexed": true,
          "internalType": "address",
          "name": "operator",
          "type": "address"
        },
        {
          "indexed": false,
          "internalType": "bool",
          "name": "approved",
          "type": "bool"
        }
      ],
      "name": "ApprovalForAll",
      "type": "event"
    },
    {
      "anonymous": false,
      "inputs": [
        {
          "indexed": true,
          "internalType": "address",
          "name": "previousOwner",
          "type": "address"
        },
        {
          "indexed": true,
          "internalType": "address",
          "name": "newOwner",
          "type": "address"
        }
      ],
      "name": "OwnershipTransferred",
      "type": "event"
    },
    {
      "anonymous": false,
      "inputs": [
        {
          "indexed": true,
          "internalType": "address",
          "name": "from",
          "type": "address"
        },
        {
          "indexed": true,
          "internalType": "address",
          "name": "to",
          "type": "address"
        },
        {
          "indexed": true,
          "internalType": "uint256",
          "name": "tokenId",
          "type": "uint256"
        }
      ],
      "name": "Transfer",
      "type": "event"
    },
    {
      "inputs": [
        {
          "internalType": "address",
          "name": "to",
          "type": "address"
        },
        {
          "internalType": "uint256",
          "name": "tokenId",
          "type": "uint256"
        }
      ],
      "name": "approve",
      "outputs": [],
      "stateMutability": "nonpayable",
      "type": "function"
    },
    {
      "inputs": [
        {
          "internalType": "address",
          "name": "owner",
          "type": "address"
        }
      ],
      "name": "balanceOf",
      "outputs": [
        {
          "internalType": "uint256",
          "name": "",
          "type": "uint256"
        }
      ],
      "stateMutability": "view",
      "type": "function",
      "constant": true
    },
    {
      "inputs": [
        {
          "internalType": "uint256",
          "name": "tokenId",
          "type": "uint256"
        }
      ],
      "name": "getApproved",
      "outputs": [
        {
          "internalType": "address",
          "name": "",
          "type": "address"
        }
      ],
      "stateMutability": "view",
      "type": "function",
      "constant": true
    },
    {
      "inputs": [
        {
          "internalType": "address",
          "name": "owner",
          "type": "address"
        },
        {
          "internalType": "address",
          "name": "operator",
          "type": "address"
        }
      ],
      "name": "isApprovedForAll",
      "outputs": [
        {
          "internalType": "bool",
          "name": "",
          "type": "bool"
        }
      ],
      "stateMutability": "view",
      "type": "function",
      "constant": true
    },
    {
      "inputs": [],
      "name": "name",
      "outputs": [
        {
          "internalType": "string",
          "name": "",
          "type": "string"
        }
      ],
      "stateMutability": "view",
      "type": "function",
      "constant": true
    },
    {
      "inputs": [],
      "name": "owner",
      "outputs": [
        {
          "internalType": "address",
          "name": "",
          "type": "address"
        }
      ],
      "stateMutability": "view",
      "type": "function",
      "constant": true
    },
    {
      "inputs": [
        {
          "internalType": "uint256",
          "name": "tokenId",
          "type": "uint256"
        }
      ],
      "name": "ownerOf",
      "outputs": [
        {
          "internalType": "address",
          "name": "",
          "type": "address"
        }
      ],
      "stateMutability": "view",
      "type": "function",
      "constant": true
    },
    {
      "inputs": [],
      "name": "renounceOwnership",
      "outputs": [],
      "stateMutability": "nonpayable",
      "type": "function"
    },
    {
      "inputs": [
        {
          "internalType": "address",
          "name": "from",
          "type": "address"
        },
        {
          "internalType": "address",
          "name": "to",
          "type": "address"
        },
        {
          "internalType": "uint256",
          "name": "tokenId",
          "type": "uint256"
        }
      ],
      "name": "safeTransferFrom",
      "outputs": [],
      "stateMutability": "nonpayable",
      "type": "function"
    },
    {
      "inputs": [
        {
          "internalType": "address",
          "name": "from",
          "type": "address"
        },
        {
          "internalType": "address",
          "name": "to",
          "type": "address"
        },
        {
          "internalType": "uint256",
          "name": "tokenId",
          "type": "uint256"
        },
        {
          "internalType": "bytes",
          "name": "_data",
          "type": "bytes"
        }
      ],
      "name": "safeTransferFrom",
      "outputs": [],
      "stateMutability": "nonpayable",
      "type": "function"
    },
    {
      "inputs": [
        {
          "internalType": "address",
          "name": "operator",
          "type": "address"
        },
        {
          "internalType": "bool",
          "name": "approved",
          "type": "bool"
        }
      ],
      "name": "setApprovalForAll",
      "outputs": [],
      "stateMutability": "nonpayable",
      "type": "function"
    },
    {
      "inputs": [],
      "name": "symbol",
      "outputs": [
        {
          "internalType": "string",
          "name": "",
          "type": "string"
        }
      ],
      "stateMutability": "view",
      "type": "function",
      "constant": true
    },
    {
      "inputs": [
        {
          "internalType": "uint256",
          "name": "index",
          "type": "uint256"
        }
      ],
      "name": "tokenByIndex",
      "outputs": [
        {
          "internalType": "uint256",
          "name": "",
          "type": "uint256"
        }
      ],
      "stateMutability": "view",
      "type": "function",
      "constant": true
    },
    {
      "inputs": [
        {
          "internalType": "address",
          "name": "owner",
          "type": "address"
        },
        {
          "internalType": "uint256",
          "name": "index",
          "type": "uint256"
        }
      ],
      "name": "tokenOfOwnerByIndex",
      "outputs": [
        {
          "internalType": "uint256",
          "name": "",
          "type": "uint256"
        }
      ],
      "stateMutability": "view",
      "type": "function",
      "constant": true
    },
    {
      "inputs": [],
      "name": "totalSupply",
      "outputs": [
        {
          "internalType": "uint256",
          "name": "",
          "type": "uint256"
        }
      ],
      "stateMutability": "view",
      "type": "function",
      "constant": true
    },
    {
      "inputs": [
        {
          "internalType": "address",
          "name": "from",
          "type": "address"
        },
        {
          "internalType": "address",
          "name": "to",
          "type": "address"
        },
        {
          "internalType": "uint256",
          "name": "tokenId",
          "type": "uint256"
        }
      ],
      "name": "transferFrom",
      "outputs": [],
      "stateMutability": "nonpayable",
      "type": "function"
    },
    {
      "inputs": [
        {
          "internalType": "address",
          "name": "newOwner",
          "type": "address"
        }
      ],
      "name": "transferOwnership",
      "outputs": [],
      "stateMutability": "nonpayable",
      "type": "function"
    },
    {
      "inputs": [
        {
          "internalType": "uint256",
          "name": "tokenId",
          "type": "uint256"
        }
      ],
      "name": "tokenURI",
      "outputs": [
        {
          "internalType": "string",
          "name": "",
          "type": "string"
        }
      ],
      "stateMutability": "view",
      "type": "function",
      "constant": true
    },
    {
      "inputs": [
        {
          "internalType": "bytes4",
          "name": "interfaceId",
          "type": "bytes4"
        }
      ],
      "name": "supportsInterface",
      "outputs": [
        {
          "internalType": "bool",
          "name": "",
          "type": "bool"
        }
      ],
      "stateMutability": "view",
      "type": "function",
      "constant": true
    },
    {
      "inputs": [
        {
          "internalType": "address",
          "name": "owner",
          "type": "address"
        },
        {
          "internalType": "string",
          "name": "metadataURI",
          "type": "string"
        }
      ],
      "name": "mintTicketToken",
      "outputs": [
        {
          "internalType": "uint256",
          "name": "",
          "type": "uint256"
        }
      ],
      "stateMutability": "nonpayable",
      "type": "function"
    }
  ],
  "bytecode": "0x60806040523480156200001157600080fd5b506040518060400160405280600981526020017f4254535469636b657400000000000000000000000000000000000000000000008152506040518060400160405280600381526020017f4254530000000000000000000000000000000000000000000000000000000000815250816000908051906020019062000096929190620001a6565b508060019080519060200190620000af929190620001a6565b505050620000d2620000c6620000d860201b60201c565b620000e060201b60201c565b620002ba565b600033905090565b6000600b60009054906101000a900473ffffffffffffffffffffffffffffffffffffffff16905081600b60006101000a81548173ffffffffffffffffffffffffffffffffffffffff021916908373ffffffffffffffffffffffffffffffffffffffff1602179055508173ffffffffffffffffffffffffffffffffffffffff168173ffffffffffffffffffffffffffffffffffffffff167f8be0079c531659141344cd1fd0a4f28419497f9722a3daafe3b4186f6b6457e060405160405180910390a35050565b828054620001b49062000285565b90600052602060002090601f016020900481019282620001d8576000855562000224565b82601f10620001f357805160ff191683800117855562000224565b8280016001018555821562000224579182015b828111156200022357825182559160200191906001019062000206565b5b50905062000233919062000237565b5090565b5b808211156200025257600081600090555060010162000238565b5090565b7f4e487b7100000000000000000000000000000000000000000000000000000000600052602260045260246000fd5b600060028204905060018216806200029e57607f821691505b602082108103620002b457620002b362000256565b5b50919050565b61380380620002ca6000396000f3fe608060405234801561001057600080fd5b506004361061012c5760003560e01c80636352211e116100ad578063a22cb46511610071578063a22cb46514610357578063b88d4fde14610373578063c87b56dd1461038f578063e985e9c5146103bf578063f2fde38b146103ef5761012c565b80636352211e146102b157806370a08231146102e1578063715018a6146103115780638da5cb5b1461031b57806395d89b41146103395761012c565b806321dbdce6116100f457806321dbdce6146101e957806323b872dd146102195780632f745c591461023557806342842e0e146102655780634f6ccce7146102815761012c565b806301ffc9a71461013157806306fdde0314610161578063081812fc1461017f578063095ea7b3146101af57806318160ddd146101cb575b600080fd5b61014b60048036038101906101469190612316565b61040b565b604051610158919061235e565b60405180910390f35b61016961041d565b6040516101769190612412565b60405180910390f35b6101996004803603810190610194919061246a565b6104af565b6040516101a691906124d8565b60405180910390f35b6101c960048036038101906101c4919061251f565b610534565b005b6101d361064b565b6040516101e0919061256e565b60405180910390f35b61020360048036038101906101fe91906126be565b610658565b604051610210919061256e565b60405180910390f35b610233600480360381019061022e919061271a565b610690565b005b61024f600480360381019061024a919061251f565b6106f0565b60405161025c919061256e565b60405180910390f35b61027f600480360381019061027a919061271a565b610795565b005b61029b6004803603810190610296919061246a565b6107b5565b6040516102a8919061256e565b60405180910390f35b6102cb60048036038101906102c6919061246a565b610826565b6040516102d891906124d8565b60405180910390f35b6102fb60048036038101906102f6919061276d565b6108d7565b604051610308919061256e565b60405180910390f35b61031961098e565b005b610323610a16565b60405161033091906124d8565b60405180910390f35b610341610a40565b60405161034e9190612412565b60405180910390f35b610371600480360381019061036c91906127c6565b610ad2565b005b61038d600480360381019061038891906128a7565b610ae8565b005b6103a960048036038101906103a4919061246a565b610b4a565b6040516103b69190612412565b60405180910390f35b6103d960048036038101906103d4919061292a565b610b5c565b6040516103e6919061235e565b60405180910390f35b6104096004803603810190610404919061276d565b610bf0565b005b600061041682610ce7565b9050919050565b60606000805461042c90612999565b80601f016020809104026020016040519081016040528092919081815260200182805461045890612999565b80156104a55780601f1061047a576101008083540402835291602001916104a5565b820191906000526020600020905b81548152906001019060200180831161048857829003601f168201915b5050505050905090565b60006104ba82610d61565b6104f9576040517f08c379a00000000000000000000000000000000000000000000000000000000081526004016104f090612a3c565b60405180910390fd5b6004600083815260200190815260200160002060009054906101000a900473ffffffffffffffffffffffffffffffffffffffff169050919050565b600061053f82610826565b90508073ffffffffffffffffffffffffffffffffffffffff168373ffffffffffffffffffffffffffffffffffffffff16036105af576040517f08c379a00000000000000000000000000000000000000000000000000000000081526004016105a690612ace565b60405180910390fd5b8073ffffffffffffffffffffffffffffffffffffffff166105ce610dcd565b73ffffffffffffffffffffffffffffffffffffffff1614806105fd57506105fc816105f7610dcd565b610b5c565b5b61063c576040517f08c379a000000000000000000000000000000000000000000000000000000000815260040161063390612b60565b60405180910390fd5b6106468383610dd5565b505050565b6000600980549050905090565b6000610664600c610e8e565b6000610670600c610ea4565b905061067c8482610eb2565b6106868184610ed0565b8091505092915050565b6106a161069b610dcd565b82610f44565b6106e0576040517f08c379a00000000000000000000000000000000000000000000000000000000081526004016106d790612bf2565b60405180910390fd5b6106eb838383611022565b505050565b60006106fb836108d7565b821061073c576040517f08c379a000000000000000000000000000000000000000000000000000000000815260040161073390612c84565b60405180910390fd5b600760008473ffffffffffffffffffffffffffffffffffffffff1673ffffffffffffffffffffffffffffffffffffffff168152602001908152602001600020600083815260200190815260200160002054905092915050565b6107b083838360405180602001604052806000815250610ae8565b505050565b60006107bf61064b565b8210610800576040517f08c379a00000000000000000000000000000000000000000000000000000000081526004016107f790612d16565b60405180910390fd5b6009828154811061081457610813612d36565b5b90600052602060002001549050919050565b6000806002600084815260200190815260200160002060009054906101000a900473ffffffffffffffffffffffffffffffffffffffff169050600073ffffffffffffffffffffffffffffffffffffffff168173ffffffffffffffffffffffffffffffffffffffff16036108ce576040517f08c379a00000000000000000000000000000000000000000000000000000000081526004016108c590612dd7565b60405180910390fd5b80915050919050565b60008073ffffffffffffffffffffffffffffffffffffffff168273ffffffffffffffffffffffffffffffffffffffff1603610947576040517f08c379a000000000000000000000000000000000000000000000000000000000815260040161093e90612e69565b60405180910390fd5b600360008373ffffffffffffffffffffffffffffffffffffffff1673ffffffffffffffffffffffffffffffffffffffff168152602001908152602001600020549050919050565b610996610dcd565b73ffffffffffffffffffffffffffffffffffffffff166109b4610a16565b73ffffffffffffffffffffffffffffffffffffffff1614610a0a576040517f08c379a0000000000000000000000000000000000000000000000000000000008152600401610a0190612ed5565b60405180910390fd5b610a146000611288565b565b6000600b60009054906101000a900473ffffffffffffffffffffffffffffffffffffffff16905090565b606060018054610a4f90612999565b80601f0160208091040260200160405190810160405280929190818152602001828054610a7b90612999565b8015610ac85780601f10610a9d57610100808354040283529160200191610ac8565b820191906000526020600020905b815481529060010190602001808311610aab57829003601f168201915b5050505050905090565b610ae4610add610dcd565b838361134e565b5050565b610af9610af3610dcd565b83610f44565b610b38576040517f08c379a0000000000000000000000000000000000000000000000000000000008152600401610b2f90612bf2565b60405180910390fd5b610b44848484846114ba565b50505050565b6060610b5582611516565b9050919050565b6000600560008473ffffffffffffffffffffffffffffffffffffffff1673ffffffffffffffffffffffffffffffffffffffff16815260200190815260200160002060008373ffffffffffffffffffffffffffffffffffffffff1673ffffffffffffffffffffffffffffffffffffffff16815260200190815260200160002060009054906101000a900460ff16905092915050565b610bf8610dcd565b73ffffffffffffffffffffffffffffffffffffffff16610c16610a16565b73ffffffffffffffffffffffffffffffffffffffff1614610c6c576040517f08c379a0000000000000000000000000000000000000000000000000000000008152600401610c6390612ed5565b60405180910390fd5b600073ffffffffffffffffffffffffffffffffffffffff168173ffffffffffffffffffffffffffffffffffffffff1603610cdb576040517f08c379a0000000000000000000000000000000000000000000000000000000008152600401610cd290612f67565b60405180910390fd5b610ce481611288565b50565b60007f780e9d63000000000000000000000000000000000000000000000000000000007bffffffffffffffffffffffffffffffffffffffffffffffffffffffff1916827bffffffffffffffffffffffffffffffffffffffffffffffffffffffff19161480610d5a5750610d5982611667565b5b9050919050565b60008073ffffffffffffffffffffffffffffffffffffffff166002600084815260200190815260200160002060009054906101000a900473ffffffffffffffffffffffffffffffffffffffff1673ffffffffffffffffffffffffffffffffffffffff1614159050919050565b600033905090565b816004600083815260200190815260200160002060006101000a81548173ffffffffffffffffffffffffffffffffffffffff021916908373ffffffffffffffffffffffffffffffffffffffff160217905550808273ffffffffffffffffffffffffffffffffffffffff16610e4883610826565b73ffffffffffffffffffffffffffffffffffffffff167f8c5be1e5ebec7d5bd14f71427d1e84f3dd0314c0f7b2291e5b200ac8c7c3b92560405160405180910390a45050565b6001816000016000828254019250508190555050565b600081600001549050919050565b610ecc828260405180602001604052806000815250611749565b5050565b610ed982610d61565b610f18576040517f08c379a0000000000000000000000000000000000000000000000000000000008152600401610f0f90612ff9565b60405180910390fd5b80600660008481526020019081526020016000209080519060200190610f3f929190612207565b505050565b6000610f4f82610d61565b610f8e576040517f08c379a0000000000000000000000000000000000000000000000000000000008152600401610f859061308b565b60405180910390fd5b6000610f9983610826565b90508073ffffffffffffffffffffffffffffffffffffffff168473ffffffffffffffffffffffffffffffffffffffff161480610fdb5750610fda8185610b5c565b5b8061101957508373ffffffffffffffffffffffffffffffffffffffff16611001846104af565b73ffffffffffffffffffffffffffffffffffffffff16145b91505092915050565b8273ffffffffffffffffffffffffffffffffffffffff1661104282610826565b73ffffffffffffffffffffffffffffffffffffffff1614611098576040517f08c379a000000000000000000000000000000000000000000000000000000000815260040161108f9061311d565b60405180910390fd5b600073ffffffffffffffffffffffffffffffffffffffff168273ffffffffffffffffffffffffffffffffffffffff1603611107576040517f08c379a00000000000000000000000000000000000000000000000000000000081526004016110fe906131af565b60405180910390fd5b6111128383836117a4565b61111d600082610dd5565b6001600360008573ffffffffffffffffffffffffffffffffffffffff1673ffffffffffffffffffffffffffffffffffffffff168152602001908152602001600020600082825461116d91906131fe565b925050819055506001600360008473ffffffffffffffffffffffffffffffffffffffff1673ffffffffffffffffffffffffffffffffffffffff16815260200190815260200160002060008282546111c49190613232565b92505081905550816002600083815260200190815260200160002060006101000a81548173ffffffffffffffffffffffffffffffffffffffff021916908373ffffffffffffffffffffffffffffffffffffffff160217905550808273ffffffffffffffffffffffffffffffffffffffff168473ffffffffffffffffffffffffffffffffffffffff167fddf252ad1be2c89b69c2b068fc378daa952ba7f163c4a11628f55a4df523b3ef60405160405180910390a46112838383836117b4565b505050565b6000600b60009054906101000a900473ffffffffffffffffffffffffffffffffffffffff16905081600b60006101000a81548173ffffffffffffffffffffffffffffffffffffffff021916908373ffffffffffffffffffffffffffffffffffffffff1602179055508173ffffffffffffffffffffffffffffffffffffffff168173ffffffffffffffffffffffffffffffffffffffff167f8be0079c531659141344cd1fd0a4f28419497f9722a3daafe3b4186f6b6457e060405160405180910390a35050565b8173ffffffffffffffffffffffffffffffffffffffff168373ffffffffffffffffffffffffffffffffffffffff16036113bc576040517f08c379a00000000000000000000000000000000000000000000000000000000081526004016113b3906132d4565b60405180910390fd5b80600560008573ffffffffffffffffffffffffffffffffffffffff1673ffffffffffffffffffffffffffffffffffffffff16815260200190815260200160002060008473ffffffffffffffffffffffffffffffffffffffff1673ffffffffffffffffffffffffffffffffffffffff16815260200190815260200160002060006101000a81548160ff0219169083151502179055508173ffffffffffffffffffffffffffffffffffffffff168373ffffffffffffffffffffffffffffffffffffffff167f17307eab39ab6107e8899845ad3d59bd9653f200f220920489ca2b5937696c31836040516114ad919061235e565b60405180910390a3505050565b6114c5848484611022565b6114d1848484846117b9565b611510576040517f08c379a000000000000000000000000000000000000000000000000000000000815260040161150790613366565b60405180910390fd5b50505050565b606061152182610d61565b611560576040517f08c379a0000000000000000000000000000000000000000000000000000000008152600401611557906133f8565b60405180910390fd5b600060066000848152602001908152602001600020805461158090612999565b80601f01602080910402602001604051908101604052809291908181526020018280546115ac90612999565b80156115f95780601f106115ce576101008083540402835291602001916115f9565b820191906000526020600020905b8154815290600101906020018083116115dc57829003601f168201915b50505050509050600061160a611940565b9050600081510361161f578192505050611662565b60008251111561165457808260405160200161163c929190613454565b60405160208183030381529060405292505050611662565b61165d8461197d565b925050505b919050565b60007f80ac58cd000000000000000000000000000000000000000000000000000000007bffffffffffffffffffffffffffffffffffffffffffffffffffffffff1916827bffffffffffffffffffffffffffffffffffffffffffffffffffffffff1916148061173257507f5b5e139f000000000000000000000000000000000000000000000000000000007bffffffffffffffffffffffffffffffffffffffffffffffffffffffff1916827bffffffffffffffffffffffffffffffffffffffffffffffffffffffff1916145b80611742575061174182611a24565b5b9050919050565b6117538383611a8e565b61176060008484846117b9565b61179f576040517f08c379a000000000000000000000000000000000000000000000000000000000815260040161179690613366565b60405180910390fd5b505050565b6117af838383611c67565b505050565b505050565b60006117da8473ffffffffffffffffffffffffffffffffffffffff16611d79565b15611933578373ffffffffffffffffffffffffffffffffffffffff1663150b7a02611803610dcd565b8786866040518563ffffffff1660e01b815260040161182594939291906134cd565b6020604051808303816000875af192505050801561186157506040513d601f19601f8201168201806040525081019061185e919061352e565b60015b6118e3573d8060008114611891576040519150601f19603f3d011682016040523d82523d6000602084013e611896565b606091505b5060008151036118db576040517f08c379a00000000000000000000000000000000000000000000000000000000081526004016118d290613366565b60405180910390fd5b805181602001fd5b63150b7a0260e01b7bffffffffffffffffffffffffffffffffffffffffffffffffffffffff1916817bffffffffffffffffffffffffffffffffffffffffffffffffffffffff191614915050611938565b600190505b949350505050565b60606040518060400160405280601581526020017f68747470733a2f2f697066732e696f2f697066732f0000000000000000000000815250905090565b606061198882610d61565b6119c7576040517f08c379a00000000000000000000000000000000000000000000000000000000081526004016119be906135cd565b60405180910390fd5b60006119d1611940565b905060008151116119f15760405180602001604052806000815250611a1c565b806119fb84611d9c565b604051602001611a0c929190613454565b6040516020818303038152906040525b915050919050565b60007f01ffc9a7000000000000000000000000000000000000000000000000000000007bffffffffffffffffffffffffffffffffffffffffffffffffffffffff1916827bffffffffffffffffffffffffffffffffffffffffffffffffffffffff1916149050919050565b600073ffffffffffffffffffffffffffffffffffffffff168273ffffffffffffffffffffffffffffffffffffffff1603611afd576040517f08c379a0000000000000000000000000000000000000000000000000000000008152600401611af490613639565b60405180910390fd5b611b0681610d61565b15611b46576040517f08c379a0000000000000000000000000000000000000000000000000000000008152600401611b3d906136a5565b60405180910390fd5b611b52600083836117a4565b6001600360008473ffffffffffffffffffffffffffffffffffffffff1673ffffffffffffffffffffffffffffffffffffffff1681526020019081526020016000206000828254611ba29190613232565b92505081905550816002600083815260200190815260200160002060006101000a81548173ffffffffffffffffffffffffffffffffffffffff021916908373ffffffffffffffffffffffffffffffffffffffff160217905550808273ffffffffffffffffffffffffffffffffffffffff16600073ffffffffffffffffffffffffffffffffffffffff167fddf252ad1be2c89b69c2b068fc378daa952ba7f163c4a11628f55a4df523b3ef60405160405180910390a4611c63600083836117b4565b5050565b611c72838383611efc565b600073ffffffffffffffffffffffffffffffffffffffff168373ffffffffffffffffffffffffffffffffffffffff1603611cb457611caf81611f01565b611cf3565b8173ffffffffffffffffffffffffffffffffffffffff168373ffffffffffffffffffffffffffffffffffffffff1614611cf257611cf18382611f4a565b5b5b600073ffffffffffffffffffffffffffffffffffffffff168273ffffffffffffffffffffffffffffffffffffffff1603611d3557611d30816120b7565b611d74565b8273ffffffffffffffffffffffffffffffffffffffff168273ffffffffffffffffffffffffffffffffffffffff1614611d7357611d728282612188565b5b5b505050565b6000808273ffffffffffffffffffffffffffffffffffffffff163b119050919050565b606060008203611de3576040518060400160405280600181526020017f30000000000000000000000000000000000000000000000000000000000000008152509050611ef7565b600082905060005b60008214611e15578080611dfe906136c5565b915050600a82611e0e919061373c565b9150611deb565b60008167ffffffffffffffff811115611e3157611e30612593565b5b6040519080825280601f01601f191660200182016040528015611e635781602001600182028036833780820191505090505b5090505b60008514611ef057600182611e7c91906131fe565b9150600a85611e8b919061376d565b6030611e979190613232565b60f81b818381518110611ead57611eac612d36565b5b60200101907effffffffffffffffffffffffffffffffffffffffffffffffffffffffffffff1916908160001a905350600a85611ee9919061373c565b9450611e67565b8093505050505b919050565b505050565b600980549050600a600083815260200190815260200160002081905550600981908060018154018082558091505060019003906000526020600020016000909190919091505550565b60006001611f57846108d7565b611f6191906131fe565b9050600060086000848152602001908152602001600020549050818114612046576000600760008673ffffffffffffffffffffffffffffffffffffffff1673ffffffffffffffffffffffffffffffffffffffff168152602001908152602001600020600084815260200190815260200160002054905080600760008773ffffffffffffffffffffffffffffffffffffffff1673ffffffffffffffffffffffffffffffffffffffff168152602001908152602001600020600084815260200190815260200160002081905550816008600083815260200190815260200160002081905550505b6008600084815260200190815260200160002060009055600760008573ffffffffffffffffffffffffffffffffffffffff1673ffffffffffffffffffffffffffffffffffffffff16815260200190815260200160002060008381526020019081526020016000206000905550505050565b600060016009805490506120cb91906131fe565b90506000600a60008481526020019081526020016000205490506000600983815481106120fb576120fa612d36565b5b90600052602060002001549050806009838154811061211d5761211c612d36565b5b906000526020600020018190555081600a600083815260200190815260200160002081905550600a600085815260200190815260200160002060009055600980548061216c5761216b61379e565b5b6001900381819060005260206000200160009055905550505050565b6000612193836108d7565b905081600760008573ffffffffffffffffffffffffffffffffffffffff1673ffffffffffffffffffffffffffffffffffffffff168152602001908152602001600020600083815260200190815260200160002081905550806008600084815260200190815260200160002081905550505050565b82805461221390612999565b90600052602060002090601f016020900481019282612235576000855561227c565b82601f1061224e57805160ff191683800117855561227c565b8280016001018555821561227c579182015b8281111561227b578251825591602001919060010190612260565b5b509050612289919061228d565b5090565b5b808211156122a657600081600090555060010161228e565b5090565b6000604051905090565b600080fd5b600080fd5b60007fffffffff0000000000000000000000000000000000000000000000000000000082169050919050565b6122f3816122be565b81146122fe57600080fd5b50565b600081359050612310816122ea565b92915050565b60006020828403121561232c5761232b6122b4565b5b600061233a84828501612301565b91505092915050565b60008115159050919050565b61235881612343565b82525050565b6000602082019050612373600083018461234f565b92915050565b600081519050919050565b600082825260208201905092915050565b60005b838110156123b3578082015181840152602081019050612398565b838111156123c2576000848401525b50505050565b6000601f19601f8301169050919050565b60006123e482612379565b6123ee8185612384565b93506123fe818560208601612395565b612407816123c8565b840191505092915050565b6000602082019050818103600083015261242c81846123d9565b905092915050565b6000819050919050565b61244781612434565b811461245257600080fd5b50565b6000813590506124648161243e565b92915050565b6000602082840312156124805761247f6122b4565b5b600061248e84828501612455565b91505092915050565b600073ffffffffffffffffffffffffffffffffffffffff82169050919050565b60006124c282612497565b9050919050565b6124d2816124b7565b82525050565b60006020820190506124ed60008301846124c9565b92915050565b6124fc816124b7565b811461250757600080fd5b50565b600081359050612519816124f3565b92915050565b60008060408385031215612536576125356122b4565b5b60006125448582860161250a565b925050602061255585828601612455565b9150509250929050565b61256881612434565b82525050565b6000602082019050612583600083018461255f565b92915050565b600080fd5b600080fd5b7f4e487b7100000000000000000000000000000000000000000000000000000000600052604160045260246000fd5b6125cb826123c8565b810181811067ffffffffffffffff821117156125ea576125e9612593565b5b80604052505050565b60006125fd6122aa565b905061260982826125c2565b919050565b600067ffffffffffffffff82111561262957612628612593565b5b612632826123c8565b9050602081019050919050565b82818337600083830152505050565b600061266161265c8461260e565b6125f3565b90508281526020810184848401111561267d5761267c61258e565b5b61268884828561263f565b509392505050565b600082601f8301126126a5576126a4612589565b5b81356126b584826020860161264e565b91505092915050565b600080604083850312156126d5576126d46122b4565b5b60006126e38582860161250a565b925050602083013567ffffffffffffffff811115612704576127036122b9565b5b61271085828601612690565b9150509250929050565b600080600060608486031215612733576127326122b4565b5b60006127418682870161250a565b93505060206127528682870161250a565b925050604061276386828701612455565b9150509250925092565b600060208284031215612783576127826122b4565b5b60006127918482850161250a565b91505092915050565b6127a381612343565b81146127ae57600080fd5b50565b6000813590506127c08161279a565b92915050565b600080604083850312156127dd576127dc6122b4565b5b60006127eb8582860161250a565b92505060206127fc858286016127b1565b9150509250929050565b600067ffffffffffffffff82111561282157612820612593565b5b61282a826123c8565b9050602081019050919050565b600061284a61284584612806565b6125f3565b9050828152602081018484840111156128665761286561258e565b5b61287184828561263f565b509392505050565b600082601f83011261288e5761288d612589565b5b813561289e848260208601612837565b91505092915050565b600080600080608085870312156128c1576128c06122b4565b5b60006128cf8782880161250a565b94505060206128e08782880161250a565b93505060406128f187828801612455565b925050606085013567ffffffffffffffff811115612912576129116122b9565b5b61291e87828801612879565b91505092959194509250565b60008060408385031215612941576129406122b4565b5b600061294f8582860161250a565b92505060206129608582860161250a565b9150509250929050565b7f4e487b7100000000000000000000000000000000000000000000000000000000600052602260045260246000fd5b600060028204905060018216806129b157607f821691505b6020821081036129c4576129c361296a565b5b50919050565b7f4552433732313a20617070726f76656420717565727920666f72206e6f6e657860008201527f697374656e7420746f6b656e0000000000000000000000000000000000000000602082015250565b6000612a26602c83612384565b9150612a31826129ca565b604082019050919050565b60006020820190508181036000830152612a5581612a19565b9050919050565b7f4552433732313a20617070726f76616c20746f2063757272656e74206f776e6560008201527f7200000000000000000000000000000000000000000000000000000000000000602082015250565b6000612ab8602183612384565b9150612ac382612a5c565b604082019050919050565b60006020820190508181036000830152612ae781612aab565b9050919050565b7f4552433732313a20617070726f76652063616c6c6572206973206e6f74206f7760008201527f6e6572206e6f7220617070726f76656420666f7220616c6c0000000000000000602082015250565b6000612b4a603883612384565b9150612b5582612aee565b604082019050919050565b60006020820190508181036000830152612b7981612b3d565b9050919050565b7f4552433732313a207472616e736665722063616c6c6572206973206e6f74206f60008201527f776e6572206e6f7220617070726f766564000000000000000000000000000000602082015250565b6000612bdc603183612384565b9150612be782612b80565b604082019050919050565b60006020820190508181036000830152612c0b81612bcf565b9050919050565b7f455243373231456e756d657261626c653a206f776e657220696e646578206f7560008201527f74206f6620626f756e6473000000000000000000000000000000000000000000602082015250565b6000612c6e602b83612384565b9150612c7982612c12565b604082019050919050565b60006020820190508181036000830152612c9d81612c61565b9050919050565b7f455243373231456e756d657261626c653a20676c6f62616c20696e646578206f60008201527f7574206f6620626f756e64730000000000000000000000000000000000000000602082015250565b6000612d00602c83612384565b9150612d0b82612ca4565b604082019050919050565b60006020820190508181036000830152612d2f81612cf3565b9050919050565b7f4e487b7100000000000000000000000000000000000000000000000000000000600052603260045260246000fd5b7f4552433732313a206f776e657220717565727920666f72206e6f6e657869737460008201527f656e7420746f6b656e0000000000000000000000000000000000000000000000602082015250565b6000612dc1602983612384565b9150612dcc82612d65565b604082019050919050565b60006020820190508181036000830152612df081612db4565b9050919050565b7f4552433732313a2062616c616e636520717565727920666f7220746865207a6560008201527f726f206164647265737300000000000000000000000000000000000000000000602082015250565b6000612e53602a83612384565b9150612e5e82612df7565b604082019050919050565b60006020820190508181036000830152612e8281612e46565b9050919050565b7f4f776e61626c653a2063616c6c6572206973206e6f7420746865206f776e6572600082015250565b6000612ebf602083612384565b9150612eca82612e89565b602082019050919050565b60006020820190508181036000830152612eee81612eb2565b9050919050565b7f4f776e61626c653a206e6577206f776e657220697320746865207a65726f206160008201527f6464726573730000000000000000000000000000000000000000000000000000602082015250565b6000612f51602683612384565b9150612f5c82612ef5565b604082019050919050565b60006020820190508181036000830152612f8081612f44565b9050919050565b7f45524337323155524953746f726167653a2055524920736574206f66206e6f6e60008201527f6578697374656e7420746f6b656e000000000000000000000000000000000000602082015250565b6000612fe3602e83612384565b9150612fee82612f87565b604082019050919050565b6000602082019050818103600083015261301281612fd6565b9050919050565b7f4552433732313a206f70657261746f7220717565727920666f72206e6f6e657860008201527f697374656e7420746f6b656e0000000000000000000000000000000000000000602082015250565b6000613075602c83612384565b915061308082613019565b604082019050919050565b600060208201905081810360008301526130a481613068565b9050919050565b7f4552433732313a207472616e736665722066726f6d20696e636f72726563742060008201527f6f776e6572000000000000000000000000000000000000000000000000000000602082015250565b6000613107602583612384565b9150613112826130ab565b604082019050919050565b60006020820190508181036000830152613136816130fa565b9050919050565b7f4552433732313a207472616e7366657220746f20746865207a65726f2061646460008201527f7265737300000000000000000000000000000000000000000000000000000000602082015250565b6000613199602483612384565b91506131a48261313d565b604082019050919050565b600060208201905081810360008301526131c88161318c565b9050919050565b7f4e487b7100000000000000000000000000000000000000000000000000000000600052601160045260246000fd5b600061320982612434565b915061321483612434565b925082821015613227576132266131cf565b5b828203905092915050565b600061323d82612434565b915061324883612434565b9250827fffffffffffffffffffffffffffffffffffffffffffffffffffffffffffffffff0382111561327d5761327c6131cf565b5b828201905092915050565b7f4552433732313a20617070726f766520746f2063616c6c657200000000000000600082015250565b60006132be601983612384565b91506132c982613288565b602082019050919050565b600060208201905081810360008301526132ed816132b1565b9050919050565b7f4552433732313a207472616e7366657220746f206e6f6e20455243373231526560008201527f63656976657220696d706c656d656e7465720000000000000000000000000000602082015250565b6000613350603283612384565b915061335b826132f4565b604082019050919050565b6000602082019050818103600083015261337f81613343565b9050919050565b7f45524337323155524953746f726167653a2055524920717565727920666f722060008201527f6e6f6e6578697374656e7420746f6b656e000000000000000000000000000000602082015250565b60006133e2603183612384565b91506133ed82613386565b604082019050919050565b60006020820190508181036000830152613411816133d5565b9050919050565b600081905092915050565b600061342e82612379565b6134388185613418565b9350613448818560208601612395565b80840191505092915050565b60006134608285613423565b915061346c8284613423565b91508190509392505050565b600081519050919050565b600082825260208201905092915050565b600061349f82613478565b6134a98185613483565b93506134b9818560208601612395565b6134c2816123c8565b840191505092915050565b60006080820190506134e260008301876124c9565b6134ef60208301866124c9565b6134fc604083018561255f565b818103606083015261350e8184613494565b905095945050505050565b600081519050613528816122ea565b92915050565b600060208284031215613544576135436122b4565b5b600061355284828501613519565b91505092915050565b7f4552433732314d657461646174613a2055524920717565727920666f72206e6f60008201527f6e6578697374656e7420746f6b656e0000000000000000000000000000000000602082015250565b60006135b7602f83612384565b91506135c28261355b565b604082019050919050565b600060208201905081810360008301526135e6816135aa565b9050919050565b7f4552433732313a206d696e7420746f20746865207a65726f2061646472657373600082015250565b6000613623602083612384565b915061362e826135ed565b602082019050919050565b6000602082019050818103600083015261365281613616565b9050919050565b7f4552433732313a20746f6b656e20616c7265616479206d696e74656400000000600082015250565b600061368f601c83612384565b915061369a82613659565b602082019050919050565b600060208201905081810360008301526136be81613682565b9050919050565b60006136d082612434565b91507fffffffffffffffffffffffffffffffffffffffffffffffffffffffffffffffff8203613702576137016131cf565b5b600182019050919050565b7f4e487b7100000000000000000000000000000000000000000000000000000000600052601260045260246000fd5b600061374782612434565b915061375283612434565b9250826137625761376161370d565b5b828204905092915050565b600061377882612434565b915061378383612434565b9250826137935761379261370d565b5b828206905092915050565b7f4e487b7100000000000000000000000000000000000000000000000000000000600052603160045260246000fdfea2646970667358221220dd9e718cfcf4e387f5960fdba12e97fd577e99c24f1420f7e2b148c0d684f57d64736f6c634300080d0033",
  "immutableReferences": {},
  "source": "// SPDX-License-Identifier: MIT\r\n\r\npragma solidity >=0.4.22 <0.9.0;\r\n\r\nimport \"@openzeppelin/contracts/token/ERC721/extensions/ERC721Enumerable.sol\";\r\nimport \"@openzeppelin/contracts/token/ERC721/extensions/ERC721URIStorage.sol\";\r\nimport \"@openzeppelin/contracts/utils/Counters.sol\";\r\nimport \"@openzeppelin/contracts/access/Ownable.sol\";\r\n//https://docs.openzeppelin.com/contracts/4.x/api/utils#Counters\r\ncontract MintTicketToken is ERC721URIStorage, ERC721Enumerable, Ownable{\r\n    using Counters for Counters.Counter;\r\n    Counters.Counter private _tokenIds;\r\n\r\n    function _beforeTokenTransfer(address from, address to, uint256 tokenId)\r\n        internal\r\n        override(ERC721, ERC721Enumerable)\r\n    {\r\n        super._beforeTokenTransfer(from, to, tokenId);\r\n    }\r\n\r\n    function _burn(uint256 tokenId) internal override(ERC721, ERC721URIStorage) {\r\n        super._burn(tokenId);\r\n    }\r\n\r\n    function tokenURI(uint256 tokenId)\r\n        public\r\n        view\r\n        override(ERC721, ERC721URIStorage)\r\n        returns (string memory)\r\n    {\r\n        return super.tokenURI(tokenId);\r\n    }\r\n\r\n    function supportsInterface(bytes4 interfaceId)\r\n        public\r\n        view\r\n        override(ERC721, ERC721Enumerable)\r\n        returns (bool)\r\n    {\r\n        return super.supportsInterface(interfaceId);\r\n    }\r\n\r\n    function _baseURI() internal pure override returns (string memory) {\r\n        return \"https://ipfs.io/ipfs/\";\r\n    }\r\n\r\n    constructor() ERC721(\"BTSTicket\",\"BTS\"){\r\n        //_setBaseURI(\"ipfs://\");\r\n        //_setBaseURI(\"https://ipfs.io/ipfs/\");\r\n    }\r\n\r\n    function mintTicketToken(address owner, string memory metadataURI)\r\n        public\r\n        returns(uint256){\r\n        _tokenIds.increment();\r\n        \r\n        uint256 id = _tokenIds.current();\r\n        _safeMint(owner, id);\r\n        _setTokenURI(id, metadataURI);\r\n        return id;\r\n    }\r\n}",
  "sourcePath": "C:\\Users\\dggf3\\Desktop\\github\\BTS\\truffle\\contracts\\MintTicketToken.sol",
  "compiler": {
    "name": "solc",
    "version": "0.8.13+commit.abaa5c0e.Emscripten.clang"
  },
  "schemaVersion": "3.4.7",
  "updatedAt": "2022-05-21T10:55:59.485Z",
  "networkType": "ethereum",
  "devdoc": {
    "kind": "dev",
    "methods": {
      "approve(address,uint256)": {
        "details": "See {IERC721-approve}."
      },
      "balanceOf(address)": {
        "details": "See {IERC721-balanceOf}."
      },
      "getApproved(uint256)": {
        "details": "See {IERC721-getApproved}."
      },
      "isApprovedForAll(address,address)": {
        "details": "See {IERC721-isApprovedForAll}."
      },
      "name()": {
        "details": "See {IERC721Metadata-name}."
      },
      "owner()": {
        "details": "Returns the address of the current owner."
      },
      "ownerOf(uint256)": {
        "details": "See {IERC721-ownerOf}."
      },
      "renounceOwnership()": {
        "details": "Leaves the contract without owner. It will not be possible to call `onlyOwner` functions anymore. Can only be called by the current owner. NOTE: Renouncing ownership will leave the contract without an owner, thereby removing any functionality that is only available to the owner."
      },
      "safeTransferFrom(address,address,uint256)": {
        "details": "See {IERC721-safeTransferFrom}."
      },
      "safeTransferFrom(address,address,uint256,bytes)": {
        "details": "See {IERC721-safeTransferFrom}."
      },
      "setApprovalForAll(address,bool)": {
        "details": "See {IERC721-setApprovalForAll}."
      },
      "symbol()": {
        "details": "See {IERC721Metadata-symbol}."
      },
      "tokenByIndex(uint256)": {
        "details": "See {IERC721Enumerable-tokenByIndex}."
      },
      "tokenOfOwnerByIndex(address,uint256)": {
        "details": "See {IERC721Enumerable-tokenOfOwnerByIndex}."
      },
      "totalSupply()": {
        "details": "See {IERC721Enumerable-totalSupply}."
      },
      "transferFrom(address,address,uint256)": {
        "details": "See {IERC721-transferFrom}."
      },
      "transferOwnership(address)": {
        "details": "Transfers ownership of the contract to a new account (`newOwner`). Can only be called by the current owner."
      }
    },
    "version": 1
  },
  "userdoc": {
    "kind": "user",
    "methods": {},
    "version": 1
  }
}