{
  "contractName": "PurchaseTicketToken",
  "abi": [
    {
      "inputs": [
        {
          "internalType": "address",
          "name": "_mintTicketTokenAddress",
          "type": "address"
        }
      ],
      "stateMutability": "nonpayable",
      "type": "constructor"
    },
    {
      "inputs": [],
      "name": "mintTicketTokenAddress",
      "outputs": [
        {
          "internalType": "contract MintTicketToken",
          "name": "",
          "type": "address"
        }
      ],
      "stateMutability": "view",
      "type": "function"
    },
    {
      "inputs": [
        {
          "internalType": "uint256",
          "name": "",
          "type": "uint256"
        }
      ],
      "name": "onSaleTicketTokenArray",
      "outputs": [
        {
          "internalType": "uint256",
          "name": "",
          "type": "uint256"
        }
      ],
      "stateMutability": "view",
      "type": "function"
    },
    {
      "inputs": [
        {
          "internalType": "uint256",
          "name": "",
          "type": "uint256"
        }
      ],
      "name": "ticketTokenPrices",
      "outputs": [
        {
          "internalType": "uint256",
          "name": "",
          "type": "uint256"
        }
      ],
      "stateMutability": "view",
      "type": "function"
    },
    {
      "inputs": [
        {
          "internalType": "uint256",
          "name": "_tokenId",
          "type": "uint256"
        },
        {
          "internalType": "uint256",
          "name": "_ticketPrice",
          "type": "uint256"
        }
      ],
      "name": "setForSaleTicketToken",
      "outputs": [],
      "stateMutability": "nonpayable",
      "type": "function"
    },
    {
      "inputs": [
        {
          "internalType": "uint256",
          "name": "_tokenId",
          "type": "uint256"
        }
      ],
      "name": "purchaseTicketToken",
      "outputs": [],
      "stateMutability": "payable",
      "type": "function"
    },
    {
      "inputs": [],
      "name": "getOnSaleTicketTokenArrayLenth",
      "outputs": [
        {
          "internalType": "uint256",
          "name": "",
          "type": "uint256"
        }
      ],
      "stateMutability": "view",
      "type": "function"
    }
  ],
  "bytecode": "0x608060405234801561001057600080fd5b5060405162000f8238038062000f82833981810160405281019061003491906100dd565b806000806101000a81548173ffffffffffffffffffffffffffffffffffffffff021916908373ffffffffffffffffffffffffffffffffffffffff1602179055505061010a565b600080fd5b600073ffffffffffffffffffffffffffffffffffffffff82169050919050565b60006100aa8261007f565b9050919050565b6100ba8161009f565b81146100c557600080fd5b50565b6000815190506100d7816100b1565b92915050565b6000602082840312156100f3576100f261007a565b5b6000610101848285016100c8565b91505092915050565b610e68806200011a6000396000f3fe6080604052600436106100555760003560e01c806314dba2721461005a5780631c2c7cd214610085578063765353bd146100c25780637e285ffb146100de578063a90820781461011b578063b72d569314610146575b600080fd5b34801561006657600080fd5b5061006f61016f565b60405161007c9190610818565b60405180910390f35b34801561009157600080fd5b506100ac60048036038101906100a7919061086e565b610193565b6040516100b991906108aa565b60405180910390f35b6100dc60048036038101906100d7919061086e565b6101b7565b005b3480156100ea57600080fd5b506101056004803603810190610100919061086e565b610503565b60405161011291906108aa565b60405180910390f35b34801561012757600080fd5b5061013061051b565b60405161013d91906108aa565b60405180910390f35b34801561015257600080fd5b5061016d600480360381019061016891906108c5565b610528565b005b60008054906101000a900473ffffffffffffffffffffffffffffffffffffffff1681565b600281815481106101a357600080fd5b906000526020600020016000915090505481565b60006001600083815260200190815260200160002054905060008060009054906101000a900473ffffffffffffffffffffffffffffffffffffffff1673ffffffffffffffffffffffffffffffffffffffff16636352211e846040518263ffffffff1660e01b815260040161022b91906108aa565b602060405180830381865afa158015610248573d6000803e3d6000fd5b505050506040513d601f19601f8201168201806040525081019061026c9190610943565b9050600082116102b1576040517f08c379a00000000000000000000000000000000000000000000000000000000081526004016102a8906109cd565b60405180910390fd5b348211156102f4576040517f08c379a00000000000000000000000000000000000000000000000000000000081526004016102eb90610a39565b60405180910390fd5b81341015610337576040517f08c379a000000000000000000000000000000000000000000000000000000000815260040161032e90610aa5565b60405180910390fd5b8073ffffffffffffffffffffffffffffffffffffffff166108fc349081150290604051600060405180830381858888f1935050505015801561037d573d6000803e3d6000fd5b5060008054906101000a900473ffffffffffffffffffffffffffffffffffffffff1673ffffffffffffffffffffffffffffffffffffffff166342842e0e8233866040518463ffffffff1660e01b81526004016103db93929190610ad4565b600060405180830381600087803b1580156103f557600080fd5b505af1158015610409573d6000803e3d6000fd5b505050506000600160008581526020019081526020016000208190555060005b6002805490508110156104fd57600060016000600284815481106104505761044f610b0b565b5b9060005260206000200154815260200190815260200160002054036104ea57600260016002805490506104839190610b69565b8154811061049457610493610b0b565b5b9060005260206000200154600282815481106104b3576104b2610b0b565b5b906000526020600020018190555060028054806104d3576104d2610b9d565b5b600190038181906000526020600020016000905590555b80806104f590610bcc565b915050610429565b50505050565b60016020528060005260406000206000915090505481565b6000600280549050905090565b60008060009054906101000a900473ffffffffffffffffffffffffffffffffffffffff1673ffffffffffffffffffffffffffffffffffffffff16636352211e846040518263ffffffff1660e01b815260040161058491906108aa565b602060405180830381865afa1580156105a1573d6000803e3d6000fd5b505050506040513d601f19601f820116820180604052508101906105c59190610943565b90503373ffffffffffffffffffffffffffffffffffffffff168173ffffffffffffffffffffffffffffffffffffffff1614610635576040517f08c379a000000000000000000000000000000000000000000000000000000000815260040161062c90610c86565b60405180910390fd5b60008211610678576040517f08c379a000000000000000000000000000000000000000000000000000000000815260040161066f90610cf2565b60405180910390fd5b60008054906101000a900473ffffffffffffffffffffffffffffffffffffffff1673ffffffffffffffffffffffffffffffffffffffff1663e985e9c582306040518363ffffffff1660e01b81526004016106d3929190610d12565b602060405180830381865afa1580156106f0573d6000803e3d6000fd5b505050506040513d601f19601f820116820180604052508101906107149190610d73565b610753576040517f08c379a000000000000000000000000000000000000000000000000000000000815260040161074a90610e12565b60405180910390fd5b8160016000858152602001908152602001600020819055506002839080600181540180825580915050600190039060005260206000200160009091909190915055505050565b600073ffffffffffffffffffffffffffffffffffffffff82169050919050565b6000819050919050565b60006107de6107d96107d484610799565b6107b9565b610799565b9050919050565b60006107f0826107c3565b9050919050565b6000610802826107e5565b9050919050565b610812816107f7565b82525050565b600060208201905061082d6000830184610809565b92915050565b600080fd5b6000819050919050565b61084b81610838565b811461085657600080fd5b50565b60008135905061086881610842565b92915050565b60006020828403121561088457610883610833565b5b600061089284828501610859565b91505092915050565b6108a481610838565b82525050565b60006020820190506108bf600083018461089b565b92915050565b600080604083850312156108dc576108db610833565b5b60006108ea85828601610859565b92505060206108fb85828601610859565b9150509250929050565b600061091082610799565b9050919050565b61092081610905565b811461092b57600080fd5b50565b60008151905061093d81610917565b92915050565b60006020828403121561095957610958610833565b5b60006109678482850161092e565b91505092915050565b600082825260208201905092915050565b7f5469636b657420546f6b656e206e6f742073616c652e00000000000000000000600082015250565b60006109b7601683610970565b91506109c282610981565b602082019050919050565b600060208201905081810360008301526109e6816109aa565b9050919050565b7f43616c6c65722073656e74206c6f776572207468616e2070726963652e000000600082015250565b6000610a23601d83610970565b9150610a2e826109ed565b602082019050919050565b60006020820190508181036000830152610a5281610a16565b9050919050565b7f43616c6c65722073656e74206c6f776572207468616e20707269636500000000600082015250565b6000610a8f601c83610970565b9150610a9a82610a59565b602082019050919050565b60006020820190508181036000830152610abe81610a82565b9050919050565b610ace81610905565b82525050565b6000606082019050610ae96000830186610ac5565b610af66020830185610ac5565b610b03604083018461089b565b949350505050565b7f4e487b7100000000000000000000000000000000000000000000000000000000600052603260045260246000fd5b7f4e487b7100000000000000000000000000000000000000000000000000000000600052601160045260246000fd5b6000610b7482610838565b9150610b7f83610838565b925082821015610b9257610b91610b3a565b5b828203905092915050565b7f4e487b7100000000000000000000000000000000000000000000000000000000600052603160045260246000fd5b6000610bd782610838565b91507fffffffffffffffffffffffffffffffffffffffffffffffffffffffffffffffff8203610c0957610c08610b3a565b5b600182019050919050565b7f43616c6c6572206973206e6f74207469636b657420746f6b656e206f776e657260008201527f2e00000000000000000000000000000000000000000000000000000000000000602082015250565b6000610c70602183610970565b9150610c7b82610c14565b604082019050919050565b60006020820190508181036000830152610c9f81610c63565b9050919050565b7f5072696365206973207a65726f206f72206c6f7765722e000000000000000000600082015250565b6000610cdc601783610970565b9150610ce782610ca6565b602082019050919050565b60006020820190508181036000830152610d0b81610ccf565b9050919050565b6000604082019050610d276000830185610ac5565b610d346020830184610ac5565b9392505050565b60008115159050919050565b610d5081610d3b565b8114610d5b57600080fd5b50565b600081519050610d6d81610d47565b92915050565b600060208284031215610d8957610d88610833565b5b6000610d9784828501610d5e565b91505092915050565b7f7469636b657420746f6b656e206f776e657220646964206e6f7420617070726f60008201527f766520746f6b656e2e0000000000000000000000000000000000000000000000602082015250565b6000610dfc602983610970565b9150610e0782610da0565b604082019050919050565b60006020820190508181036000830152610e2b81610def565b905091905056fea2646970667358221220bf670bc7555dff34527592ab79d89bfaa4d9145bbd2d7f31e0f14a70cee035a764736f6c634300080d0033",
  "immutableReferences": {},
  "source": "// SPDX-License-Identifier: MIT\r\n\r\npragma solidity >=0.4.22 <0.9.0;\r\n\r\nimport \"@openzeppelin/contracts/token/ERC721/extensions/ERC721Enumerable.sol\";\r\nimport \"@openzeppelin/contracts/utils/Counters.sol\";\r\nimport \"./MintTicketToken.sol\";\r\n\r\ncontract PurchaseTicketToken{\r\n    MintTicketToken public mintTicketTokenAddress;\r\n\r\n    constructor (address _mintTicketTokenAddress){\r\n        mintTicketTokenAddress = MintTicketToken(_mintTicketTokenAddress);\r\n    }\r\n\r\n    //(key, value) => (_tokenId, _ticketPrice)\r\n    mapping(uint256 => uint256) public ticketTokenPrices;\r\n    uint256[] public onSaleTicketTokenArray;\r\n\r\n    function setForSaleTicketToken(uint256 _tokenId, uint256 _ticketPrice) public{\r\n        address ticketOwner = mintTicketTokenAddress.ownerOf(_tokenId);\r\n\r\n        require(ticketOwner == msg.sender, \"Caller is not ticket token owner.\");\r\n        require(_ticketPrice > 0, \"Price is zero or lower.\");\r\n        require (mintTicketTokenAddress.isApprovedForAll(ticketOwner, address(this)), \"ticket token owner did not approve token.\");\r\n\r\n        ticketTokenPrices[_tokenId] = _ticketPrice;\r\n        onSaleTicketTokenArray.push(_tokenId);\r\n    }\r\n\r\n    function purchaseTicketToken(uint256 _tokenId) public payable{\r\n        uint256 ticketPrice = ticketTokenPrices[_tokenId];\r\n        address ticketOwner = mintTicketTokenAddress.ownerOf(_tokenId);\r\n\r\n        require(ticketPrice > 0 , \"Ticket Token not sale.\");\r\n        require(ticketPrice <= msg.value, \"Caller sent lower than price.\");\r\n        require(msg.value >= ticketPrice, \"Caller sent lower than price\");\r\n\r\n        //msg.value : price     .\r\n        //   \r\n        payable(ticketOwner).transfer(msg.value);\r\n        mintTicketTokenAddress.safeTransferFrom(ticketOwner, msg.sender, _tokenId);\r\n\r\n        ticketTokenPrices[_tokenId] = 0;\r\n\r\n        for(uint256 i = 0; i < onSaleTicketTokenArray.length ; i++){\r\n            //   0   \r\n            if(ticketTokenPrices[onSaleTicketTokenArray[i]] == 0){\r\n                onSaleTicketTokenArray[i] = onSaleTicketTokenArray[onSaleTicketTokenArray.length - 1];\r\n                onSaleTicketTokenArray.pop();\r\n            }\r\n        }\r\n    }\r\n\r\n    function getOnSaleTicketTokenArrayLenth() view public returns (uint256){\r\n        return onSaleTicketTokenArray.length;\r\n    }\r\n}",
  "sourcePath": "C:\\Users\\dggf3\\Desktop\\github\\BTS\\truffle\\contracts\\PurchaseTicketToken.sol",
  "compiler": {
    "name": "solc",
    "version": "0.8.13+commit.abaa5c0e.Emscripten.clang"
  },
  "schemaVersion": "3.4.7",
  "updatedAt": "2022-05-25T07:06:35.194Z",
  "devdoc": {
    "kind": "dev",
    "methods": {},
    "version": 1
  },
  "userdoc": {
    "kind": "user",
    "methods": {},
    "version": 1
  }
}