{
  "contractName": "MintingTicketToken",
  "abi": [
    {
      "inputs": [],
      "stateMutability": "nonpayable",
      "type": "constructor"
    },
    {
      "anonymous": false,
      "inputs": [
        {
          "indexed": true,
          "internalType": "address",
          "name": "owner",
          "type": "address"
        },
        {
          "indexed": true,
          "internalType": "address",
          "name": "approved",
          "type": "address"
        },
        {
          "indexed": true,
          "internalType": "uint256",
          "name": "tokenId",
          "type": "uint256"
        }
      ],
      "name": "Approval",
      "type": "event"
    },
    {
      "anonymous": false,
      "inputs": [
        {
          "indexed": true,
          "internalType": "address",
          "name": "owner",
          "type": "address"
        },
        {
          "indexed": true,
          "internalType": "address",
          "name": "operator",
          "type": "address"
        },
        {
          "indexed": false,
          "internalType": "bool",
          "name": "approved",
          "type": "bool"
        }
      ],
      "name": "ApprovalForAll",
      "type": "event"
    },
    {
      "anonymous": false,
      "inputs": [
        {
          "indexed": true,
          "internalType": "address",
          "name": "from",
          "type": "address"
        },
        {
          "indexed": true,
          "internalType": "address",
          "name": "to",
          "type": "address"
        },
        {
          "indexed": true,
          "internalType": "uint256",
          "name": "tokenId",
          "type": "uint256"
        }
      ],
      "name": "Transfer",
      "type": "event"
    },
    {
      "inputs": [
        {
          "internalType": "address",
          "name": "to",
          "type": "address"
        },
        {
          "internalType": "uint256",
          "name": "tokenId",
          "type": "uint256"
        }
      ],
      "name": "approve",
      "outputs": [],
      "stateMutability": "nonpayable",
      "type": "function"
    },
    {
      "inputs": [
        {
          "internalType": "address",
          "name": "owner",
          "type": "address"
        }
      ],
      "name": "balanceOf",
      "outputs": [
        {
          "internalType": "uint256",
          "name": "",
          "type": "uint256"
        }
      ],
      "stateMutability": "view",
      "type": "function"
    },
    {
      "inputs": [
        {
          "internalType": "uint256",
          "name": "tokenId",
          "type": "uint256"
        }
      ],
      "name": "getApproved",
      "outputs": [
        {
          "internalType": "address",
          "name": "",
          "type": "address"
        }
      ],
      "stateMutability": "view",
      "type": "function"
    },
    {
      "inputs": [
        {
          "internalType": "address",
          "name": "owner",
          "type": "address"
        },
        {
          "internalType": "address",
          "name": "operator",
          "type": "address"
        }
      ],
      "name": "isApprovedForAll",
      "outputs": [
        {
          "internalType": "bool",
          "name": "",
          "type": "bool"
        }
      ],
      "stateMutability": "view",
      "type": "function"
    },
    {
      "inputs": [],
      "name": "name",
      "outputs": [
        {
          "internalType": "string",
          "name": "",
          "type": "string"
        }
      ],
      "stateMutability": "view",
      "type": "function"
    },
    {
      "inputs": [
        {
          "internalType": "uint256",
          "name": "tokenId",
          "type": "uint256"
        }
      ],
      "name": "ownerOf",
      "outputs": [
        {
          "internalType": "address",
          "name": "",
          "type": "address"
        }
      ],
      "stateMutability": "view",
      "type": "function"
    },
    {
      "inputs": [
        {
          "internalType": "address",
          "name": "from",
          "type": "address"
        },
        {
          "internalType": "address",
          "name": "to",
          "type": "address"
        },
        {
          "internalType": "uint256",
          "name": "tokenId",
          "type": "uint256"
        }
      ],
      "name": "safeTransferFrom",
      "outputs": [],
      "stateMutability": "nonpayable",
      "type": "function"
    },
    {
      "inputs": [
        {
          "internalType": "address",
          "name": "from",
          "type": "address"
        },
        {
          "internalType": "address",
          "name": "to",
          "type": "address"
        },
        {
          "internalType": "uint256",
          "name": "tokenId",
          "type": "uint256"
        },
        {
          "internalType": "bytes",
          "name": "_data",
          "type": "bytes"
        }
      ],
      "name": "safeTransferFrom",
      "outputs": [],
      "stateMutability": "nonpayable",
      "type": "function"
    },
    {
      "inputs": [
        {
          "internalType": "address",
          "name": "operator",
          "type": "address"
        },
        {
          "internalType": "bool",
          "name": "approved",
          "type": "bool"
        }
      ],
      "name": "setApprovalForAll",
      "outputs": [],
      "stateMutability": "nonpayable",
      "type": "function"
    },
    {
      "inputs": [
        {
          "internalType": "bytes4",
          "name": "interfaceId",
          "type": "bytes4"
        }
      ],
      "name": "supportsInterface",
      "outputs": [
        {
          "internalType": "bool",
          "name": "",
          "type": "bool"
        }
      ],
      "stateMutability": "view",
      "type": "function"
    },
    {
      "inputs": [],
      "name": "symbol",
      "outputs": [
        {
          "internalType": "string",
          "name": "",
          "type": "string"
        }
      ],
      "stateMutability": "view",
      "type": "function"
    },
    {
      "inputs": [
        {
          "internalType": "uint256",
          "name": "index",
          "type": "uint256"
        }
      ],
      "name": "tokenByIndex",
      "outputs": [
        {
          "internalType": "uint256",
          "name": "",
          "type": "uint256"
        }
      ],
      "stateMutability": "view",
      "type": "function"
    },
    {
      "inputs": [
        {
          "internalType": "address",
          "name": "owner",
          "type": "address"
        },
        {
          "internalType": "uint256",
          "name": "index",
          "type": "uint256"
        }
      ],
      "name": "tokenOfOwnerByIndex",
      "outputs": [
        {
          "internalType": "uint256",
          "name": "",
          "type": "uint256"
        }
      ],
      "stateMutability": "view",
      "type": "function"
    },
    {
      "inputs": [
        {
          "internalType": "uint256",
          "name": "tokenId",
          "type": "uint256"
        }
      ],
      "name": "tokenURI",
      "outputs": [
        {
          "internalType": "string",
          "name": "",
          "type": "string"
        }
      ],
      "stateMutability": "view",
      "type": "function"
    },
    {
      "inputs": [],
      "name": "totalSupply",
      "outputs": [
        {
          "internalType": "uint256",
          "name": "",
          "type": "uint256"
        }
      ],
      "stateMutability": "view",
      "type": "function"
    },
    {
      "inputs": [
        {
          "internalType": "address",
          "name": "from",
          "type": "address"
        },
        {
          "internalType": "address",
          "name": "to",
          "type": "address"
        },
        {
          "internalType": "uint256",
          "name": "tokenId",
          "type": "uint256"
        }
      ],
      "name": "transferFrom",
      "outputs": [],
      "stateMutability": "nonpayable",
      "type": "function"
    },
    {
      "inputs": [
        {
          "internalType": "address",
          "name": "owner",
          "type": "address"
        },
        {
          "internalType": "string",
          "name": "metadataURI",
          "type": "string"
        }
      ],
      "name": "mintTicketToken",
      "outputs": [
        {
          "internalType": "uint256",
          "name": "",
          "type": "uint256"
        }
      ],
      "stateMutability": "nonpayable",
      "type": "function"
    }
  ],
  "bytecode": "0x60806040523480156200001157600080fd5b506040518060400160405280600981526020017f4254535469636b657400000000000000000000000000000000000000000000008152506040518060400160405280600381526020017f4254530000000000000000000000000000000000000000000000000000000000815250816000908051906020019062000096929190620000b8565b508060019080519060200190620000af929190620000b8565b505050620001cc565b828054620000c69062000197565b90600052602060002090601f016020900481019282620000ea576000855562000136565b82601f106200010557805160ff191683800117855562000136565b8280016001018555821562000136579182015b828111156200013557825182559160200191906001019062000118565b5b50905062000145919062000149565b5090565b5b80821115620001645760008160009055506001016200014a565b5090565b7f4e487b7100000000000000000000000000000000000000000000000000000000600052602260045260246000fd5b60006002820490506001821680620001b057607f821691505b602082108103620001c657620001c562000168565b5b50919050565b61303e80620001dc6000396000f3fe608060405234801561001057600080fd5b506004361061010b5760003560e01c806342842e0e116100a257806395d89b411161007157806395d89b41146102f0578063a22cb4651461030e578063b88d4fde1461032a578063c87b56dd14610346578063e985e9c5146103765761010b565b806342842e0e146102445780634f6ccce7146102605780636352211e1461029057806370a08231146102c05761010b565b806318160ddd116100de57806318160ddd146101aa57806321dbdce6146101c857806323b872dd146101f85780632f745c59146102145761010b565b806301ffc9a71461011057806306fdde0314610140578063081812fc1461015e578063095ea7b31461018e575b600080fd5b61012a60048036038101906101259190611d73565b6103a6565b6040516101379190611dbb565b60405180910390f35b610148610420565b6040516101559190611e6f565b60405180910390f35b61017860048036038101906101739190611ec7565b6104b2565b6040516101859190611f35565b60405180910390f35b6101a860048036038101906101a39190611f7c565b610537565b005b6101b261064e565b6040516101bf9190611fcb565b60405180910390f35b6101e260048036038101906101dd919061211b565b61065b565b6040516101ef9190611fcb565b60405180910390f35b610212600480360381019061020d9190612177565b610686565b005b61022e60048036038101906102299190611f7c565b6106e6565b60405161023b9190611fcb565b60405180910390f35b61025e60048036038101906102599190612177565b61078b565b005b61027a60048036038101906102759190611ec7565b6107ab565b6040516102879190611fcb565b60405180910390f35b6102aa60048036038101906102a59190611ec7565b61081c565b6040516102b79190611f35565b60405180910390f35b6102da60048036038101906102d591906121ca565b6108cd565b6040516102e79190611fcb565b60405180910390f35b6102f8610984565b6040516103059190611e6f565b60405180910390f35b61032860048036038101906103239190612223565b610a16565b005b610344600480360381019061033f9190612304565b610a2c565b005b610360600480360381019061035b9190611ec7565b610a8e565b60405161036d9190611e6f565b60405180910390f35b610390600480360381019061038b9190612387565b610b35565b60405161039d9190611dbb565b60405180910390f35b60007f780e9d63000000000000000000000000000000000000000000000000000000007bffffffffffffffffffffffffffffffffffffffffffffffffffffffff1916827bffffffffffffffffffffffffffffffffffffffffffffffffffffffff19161480610419575061041882610bc9565b5b9050919050565b60606000805461042f906123f6565b80601f016020809104026020016040519081016040528092919081815260200182805461045b906123f6565b80156104a85780601f1061047d576101008083540402835291602001916104a8565b820191906000526020600020905b81548152906001019060200180831161048b57829003601f168201915b5050505050905090565b60006104bd82610cab565b6104fc576040517f08c379a00000000000000000000000000000000000000000000000000000000081526004016104f390612499565b60405180910390fd5b6004600083815260200190815260200160002060009054906101000a900473ffffffffffffffffffffffffffffffffffffffff169050919050565b60006105428261081c565b90508073ffffffffffffffffffffffffffffffffffffffff168373ffffffffffffffffffffffffffffffffffffffff16036105b2576040517f08c379a00000000000000000000000000000000000000000000000000000000081526004016105a99061252b565b60405180910390fd5b8073ffffffffffffffffffffffffffffffffffffffff166105d1610d17565b73ffffffffffffffffffffffffffffffffffffffff16148061060057506105ff816105fa610d17565b610b35565b5b61063f576040517f08c379a0000000000000000000000000000000000000000000000000000000008152600401610636906125bd565b60405180910390fd5b6106498383610d1f565b505050565b6000600880549050905090565b6000610667600a610dd8565b6000610673600a610dee565b905061067f8482610dfc565b5092915050565b610697610691610d17565b82610e1a565b6106d6576040517f08c379a00000000000000000000000000000000000000000000000000000000081526004016106cd9061264f565b60405180910390fd5b6106e1838383610ef8565b505050565b60006106f1836108cd565b8210610732576040517f08c379a0000000000000000000000000000000000000000000000000000000008152600401610729906126e1565b60405180910390fd5b600660008473ffffffffffffffffffffffffffffffffffffffff1673ffffffffffffffffffffffffffffffffffffffff168152602001908152602001600020600083815260200190815260200160002054905092915050565b6107a683838360405180602001604052806000815250610a2c565b505050565b60006107b561064e565b82106107f6576040517f08c379a00000000000000000000000000000000000000000000000000000000081526004016107ed90612773565b60405180910390fd5b6008828154811061080a57610809612793565b5b90600052602060002001549050919050565b6000806002600084815260200190815260200160002060009054906101000a900473ffffffffffffffffffffffffffffffffffffffff169050600073ffffffffffffffffffffffffffffffffffffffff168173ffffffffffffffffffffffffffffffffffffffff16036108c4576040517f08c379a00000000000000000000000000000000000000000000000000000000081526004016108bb90612834565b60405180910390fd5b80915050919050565b60008073ffffffffffffffffffffffffffffffffffffffff168273ffffffffffffffffffffffffffffffffffffffff160361093d576040517f08c379a0000000000000000000000000000000000000000000000000000000008152600401610934906128c6565b60405180910390fd5b600360008373ffffffffffffffffffffffffffffffffffffffff1673ffffffffffffffffffffffffffffffffffffffff168152602001908152602001600020549050919050565b606060018054610993906123f6565b80601f01602080910402602001604051908101604052809291908181526020018280546109bf906123f6565b8015610a0c5780601f106109e157610100808354040283529160200191610a0c565b820191906000526020600020905b8154815290600101906020018083116109ef57829003601f168201915b5050505050905090565b610a28610a21610d17565b838361115e565b5050565b610a3d610a37610d17565b83610e1a565b610a7c576040517f08c379a0000000000000000000000000000000000000000000000000000000008152600401610a739061264f565b60405180910390fd5b610a88848484846112ca565b50505050565b6060610a9982610cab565b610ad8576040517f08c379a0000000000000000000000000000000000000000000000000000000008152600401610acf90612958565b60405180910390fd5b6000610ae2611326565b90506000815111610b025760405180602001604052806000815250610b2d565b80610b0c8461133d565b604051602001610b1d9291906129b4565b6040516020818303038152906040525b915050919050565b6000600560008473ffffffffffffffffffffffffffffffffffffffff1673ffffffffffffffffffffffffffffffffffffffff16815260200190815260200160002060008373ffffffffffffffffffffffffffffffffffffffff1673ffffffffffffffffffffffffffffffffffffffff16815260200190815260200160002060009054906101000a900460ff16905092915050565b60007f80ac58cd000000000000000000000000000000000000000000000000000000007bffffffffffffffffffffffffffffffffffffffffffffffffffffffff1916827bffffffffffffffffffffffffffffffffffffffffffffffffffffffff19161480610c9457507f5b5e139f000000000000000000000000000000000000000000000000000000007bffffffffffffffffffffffffffffffffffffffffffffffffffffffff1916827bffffffffffffffffffffffffffffffffffffffffffffffffffffffff1916145b80610ca45750610ca38261149d565b5b9050919050565b60008073ffffffffffffffffffffffffffffffffffffffff166002600084815260200190815260200160002060009054906101000a900473ffffffffffffffffffffffffffffffffffffffff1673ffffffffffffffffffffffffffffffffffffffff1614159050919050565b600033905090565b816004600083815260200190815260200160002060006101000a81548173ffffffffffffffffffffffffffffffffffffffff021916908373ffffffffffffffffffffffffffffffffffffffff160217905550808273ffffffffffffffffffffffffffffffffffffffff16610d928361081c565b73ffffffffffffffffffffffffffffffffffffffff167f8c5be1e5ebec7d5bd14f71427d1e84f3dd0314c0f7b2291e5b200ac8c7c3b92560405160405180910390a45050565b6001816000016000828254019250508190555050565b600081600001549050919050565b610e16828260405180602001604052806000815250611507565b5050565b6000610e2582610cab565b610e64576040517f08c379a0000000000000000000000000000000000000000000000000000000008152600401610e5b90612a4a565b60405180910390fd5b6000610e6f8361081c565b90508073ffffffffffffffffffffffffffffffffffffffff168473ffffffffffffffffffffffffffffffffffffffff161480610eb15750610eb08185610b35565b5b80610eef57508373ffffffffffffffffffffffffffffffffffffffff16610ed7846104b2565b73ffffffffffffffffffffffffffffffffffffffff16145b91505092915050565b8273ffffffffffffffffffffffffffffffffffffffff16610f188261081c565b73ffffffffffffffffffffffffffffffffffffffff1614610f6e576040517f08c379a0000000000000000000000000000000000000000000000000000000008152600401610f6590612adc565b60405180910390fd5b600073ffffffffffffffffffffffffffffffffffffffff168273ffffffffffffffffffffffffffffffffffffffff1603610fdd576040517f08c379a0000000000000000000000000000000000000000000000000000000008152600401610fd490612b6e565b60405180910390fd5b610fe8838383611562565b610ff3600082610d1f565b6001600360008573ffffffffffffffffffffffffffffffffffffffff1673ffffffffffffffffffffffffffffffffffffffff16815260200190815260200160002060008282546110439190612bbd565b925050819055506001600360008473ffffffffffffffffffffffffffffffffffffffff1673ffffffffffffffffffffffffffffffffffffffff168152602001908152602001600020600082825461109a9190612bf1565b92505081905550816002600083815260200190815260200160002060006101000a81548173ffffffffffffffffffffffffffffffffffffffff021916908373ffffffffffffffffffffffffffffffffffffffff160217905550808273ffffffffffffffffffffffffffffffffffffffff168473ffffffffffffffffffffffffffffffffffffffff167fddf252ad1be2c89b69c2b068fc378daa952ba7f163c4a11628f55a4df523b3ef60405160405180910390a4611159838383611674565b505050565b8173ffffffffffffffffffffffffffffffffffffffff168373ffffffffffffffffffffffffffffffffffffffff16036111cc576040517f08c379a00000000000000000000000000000000000000000000000000000000081526004016111c390612c93565b60405180910390fd5b80600560008573ffffffffffffffffffffffffffffffffffffffff1673ffffffffffffffffffffffffffffffffffffffff16815260200190815260200160002060008473ffffffffffffffffffffffffffffffffffffffff1673ffffffffffffffffffffffffffffffffffffffff16815260200190815260200160002060006101000a81548160ff0219169083151502179055508173ffffffffffffffffffffffffffffffffffffffff168373ffffffffffffffffffffffffffffffffffffffff167f17307eab39ab6107e8899845ad3d59bd9653f200f220920489ca2b5937696c31836040516112bd9190611dbb565b60405180910390a3505050565b6112d5848484610ef8565b6112e184848484611679565b611320576040517f08c379a000000000000000000000000000000000000000000000000000000000815260040161131790612d25565b60405180910390fd5b50505050565b606060405180602001604052806000815250905090565b606060008203611384576040518060400160405280600181526020017f30000000000000000000000000000000000000000000000000000000000000008152509050611498565b600082905060005b600082146113b657808061139f90612d45565b915050600a826113af9190612dbc565b915061138c565b60008167ffffffffffffffff8111156113d2576113d1611ff0565b5b6040519080825280601f01601f1916602001820160405280156114045781602001600182028036833780820191505090505b5090505b600085146114915760018261141d9190612bbd565b9150600a8561142c9190612ded565b60306114389190612bf1565b60f81b81838151811061144e5761144d612793565b5b60200101907effffffffffffffffffffffffffffffffffffffffffffffffffffffffffffff1916908160001a905350600a8561148a9190612dbc565b9450611408565b8093505050505b919050565b60007f01ffc9a7000000000000000000000000000000000000000000000000000000007bffffffffffffffffffffffffffffffffffffffffffffffffffffffff1916827bffffffffffffffffffffffffffffffffffffffffffffffffffffffff1916149050919050565b6115118383611800565b61151e6000848484611679565b61155d576040517f08c379a000000000000000000000000000000000000000000000000000000000815260040161155490612d25565b60405180910390fd5b505050565b61156d8383836119d9565b600073ffffffffffffffffffffffffffffffffffffffff168373ffffffffffffffffffffffffffffffffffffffff16036115af576115aa816119de565b6115ee565b8173ffffffffffffffffffffffffffffffffffffffff168373ffffffffffffffffffffffffffffffffffffffff16146115ed576115ec8382611a27565b5b5b600073ffffffffffffffffffffffffffffffffffffffff168273ffffffffffffffffffffffffffffffffffffffff16036116305761162b81611b94565b61166f565b8273ffffffffffffffffffffffffffffffffffffffff168273ffffffffffffffffffffffffffffffffffffffff161461166e5761166d8282611c65565b5b5b505050565b505050565b600061169a8473ffffffffffffffffffffffffffffffffffffffff16611ce4565b156117f3578373ffffffffffffffffffffffffffffffffffffffff1663150b7a026116c3610d17565b8786866040518563ffffffff1660e01b81526004016116e59493929190612e73565b6020604051808303816000875af192505050801561172157506040513d601f19601f8201168201806040525081019061171e9190612ed4565b60015b6117a3573d8060008114611751576040519150601f19603f3d011682016040523d82523d6000602084013e611756565b606091505b50600081510361179b576040517f08c379a000000000000000000000000000000000000000000000000000000000815260040161179290612d25565b60405180910390fd5b805181602001fd5b63150b7a0260e01b7bffffffffffffffffffffffffffffffffffffffffffffffffffffffff1916817bffffffffffffffffffffffffffffffffffffffffffffffffffffffff1916149150506117f8565b600190505b949350505050565b600073ffffffffffffffffffffffffffffffffffffffff168273ffffffffffffffffffffffffffffffffffffffff160361186f576040517f08c379a000000000000000000000000000000000000000000000000000000000815260040161186690612f4d565b60405180910390fd5b61187881610cab565b156118b8576040517f08c379a00000000000000000000000000000000000000000000000000000000081526004016118af90612fb9565b60405180910390fd5b6118c460008383611562565b6001600360008473ffffffffffffffffffffffffffffffffffffffff1673ffffffffffffffffffffffffffffffffffffffff16815260200190815260200160002060008282546119149190612bf1565b92505081905550816002600083815260200190815260200160002060006101000a81548173ffffffffffffffffffffffffffffffffffffffff021916908373ffffffffffffffffffffffffffffffffffffffff160217905550808273ffffffffffffffffffffffffffffffffffffffff16600073ffffffffffffffffffffffffffffffffffffffff167fddf252ad1be2c89b69c2b068fc378daa952ba7f163c4a11628f55a4df523b3ef60405160405180910390a46119d560008383611674565b5050565b505050565b6008805490506009600083815260200190815260200160002081905550600881908060018154018082558091505060019003906000526020600020016000909190919091505550565b60006001611a34846108cd565b611a3e9190612bbd565b9050600060076000848152602001908152602001600020549050818114611b23576000600660008673ffffffffffffffffffffffffffffffffffffffff1673ffffffffffffffffffffffffffffffffffffffff168152602001908152602001600020600084815260200190815260200160002054905080600660008773ffffffffffffffffffffffffffffffffffffffff1673ffffffffffffffffffffffffffffffffffffffff168152602001908152602001600020600084815260200190815260200160002081905550816007600083815260200190815260200160002081905550505b6007600084815260200190815260200160002060009055600660008573ffffffffffffffffffffffffffffffffffffffff1673ffffffffffffffffffffffffffffffffffffffff16815260200190815260200160002060008381526020019081526020016000206000905550505050565b60006001600880549050611ba89190612bbd565b9050600060096000848152602001908152602001600020549050600060088381548110611bd857611bd7612793565b5b906000526020600020015490508060088381548110611bfa57611bf9612793565b5b906000526020600020018190555081600960008381526020019081526020016000208190555060096000858152602001908152602001600020600090556008805480611c4957611c48612fd9565b5b6001900381819060005260206000200160009055905550505050565b6000611c70836108cd565b905081600660008573ffffffffffffffffffffffffffffffffffffffff1673ffffffffffffffffffffffffffffffffffffffff168152602001908152602001600020600083815260200190815260200160002081905550806007600084815260200190815260200160002081905550505050565b6000808273ffffffffffffffffffffffffffffffffffffffff163b119050919050565b6000604051905090565b600080fd5b600080fd5b60007fffffffff0000000000000000000000000000000000000000000000000000000082169050919050565b611d5081611d1b565b8114611d5b57600080fd5b50565b600081359050611d6d81611d47565b92915050565b600060208284031215611d8957611d88611d11565b5b6000611d9784828501611d5e565b91505092915050565b60008115159050919050565b611db581611da0565b82525050565b6000602082019050611dd06000830184611dac565b92915050565b600081519050919050565b600082825260208201905092915050565b60005b83811015611e10578082015181840152602081019050611df5565b83811115611e1f576000848401525b50505050565b6000601f19601f8301169050919050565b6000611e4182611dd6565b611e4b8185611de1565b9350611e5b818560208601611df2565b611e6481611e25565b840191505092915050565b60006020820190508181036000830152611e898184611e36565b905092915050565b6000819050919050565b611ea481611e91565b8114611eaf57600080fd5b50565b600081359050611ec181611e9b565b92915050565b600060208284031215611edd57611edc611d11565b5b6000611eeb84828501611eb2565b91505092915050565b600073ffffffffffffffffffffffffffffffffffffffff82169050919050565b6000611f1f82611ef4565b9050919050565b611f2f81611f14565b82525050565b6000602082019050611f4a6000830184611f26565b92915050565b611f5981611f14565b8114611f6457600080fd5b50565b600081359050611f7681611f50565b92915050565b60008060408385031215611f9357611f92611d11565b5b6000611fa185828601611f67565b9250506020611fb285828601611eb2565b9150509250929050565b611fc581611e91565b82525050565b6000602082019050611fe06000830184611fbc565b92915050565b600080fd5b600080fd5b7f4e487b7100000000000000000000000000000000000000000000000000000000600052604160045260246000fd5b61202882611e25565b810181811067ffffffffffffffff8211171561204757612046611ff0565b5b80604052505050565b600061205a611d07565b9050612066828261201f565b919050565b600067ffffffffffffffff82111561208657612085611ff0565b5b61208f82611e25565b9050602081019050919050565b82818337600083830152505050565b60006120be6120b98461206b565b612050565b9050828152602081018484840111156120da576120d9611feb565b5b6120e584828561209c565b509392505050565b600082601f83011261210257612101611fe6565b5b81356121128482602086016120ab565b91505092915050565b6000806040838503121561213257612131611d11565b5b600061214085828601611f67565b925050602083013567ffffffffffffffff81111561216157612160611d16565b5b61216d858286016120ed565b9150509250929050565b6000806000606084860312156121905761218f611d11565b5b600061219e86828701611f67565b93505060206121af86828701611f67565b92505060406121c086828701611eb2565b9150509250925092565b6000602082840312156121e0576121df611d11565b5b60006121ee84828501611f67565b91505092915050565b61220081611da0565b811461220b57600080fd5b50565b60008135905061221d816121f7565b92915050565b6000806040838503121561223a57612239611d11565b5b600061224885828601611f67565b92505060206122598582860161220e565b9150509250929050565b600067ffffffffffffffff82111561227e5761227d611ff0565b5b61228782611e25565b9050602081019050919050565b60006122a76122a284612263565b612050565b9050828152602081018484840111156122c3576122c2611feb565b5b6122ce84828561209c565b509392505050565b600082601f8301126122eb576122ea611fe6565b5b81356122fb848260208601612294565b91505092915050565b6000806000806080858703121561231e5761231d611d11565b5b600061232c87828801611f67565b945050602061233d87828801611f67565b935050604061234e87828801611eb2565b925050606085013567ffffffffffffffff81111561236f5761236e611d16565b5b61237b878288016122d6565b91505092959194509250565b6000806040838503121561239e5761239d611d11565b5b60006123ac85828601611f67565b92505060206123bd85828601611f67565b9150509250929050565b7f4e487b7100000000000000000000000000000000000000000000000000000000600052602260045260246000fd5b6000600282049050600182168061240e57607f821691505b602082108103612421576124206123c7565b5b50919050565b7f4552433732313a20617070726f76656420717565727920666f72206e6f6e657860008201527f697374656e7420746f6b656e0000000000000000000000000000000000000000602082015250565b6000612483602c83611de1565b915061248e82612427565b604082019050919050565b600060208201905081810360008301526124b281612476565b9050919050565b7f4552433732313a20617070726f76616c20746f2063757272656e74206f776e6560008201527f7200000000000000000000000000000000000000000000000000000000000000602082015250565b6000612515602183611de1565b9150612520826124b9565b604082019050919050565b6000602082019050818103600083015261254481612508565b9050919050565b7f4552433732313a20617070726f76652063616c6c6572206973206e6f74206f7760008201527f6e6572206e6f7220617070726f76656420666f7220616c6c0000000000000000602082015250565b60006125a7603883611de1565b91506125b28261254b565b604082019050919050565b600060208201905081810360008301526125d68161259a565b9050919050565b7f4552433732313a207472616e736665722063616c6c6572206973206e6f74206f60008201527f776e6572206e6f7220617070726f766564000000000000000000000000000000602082015250565b6000612639603183611de1565b9150612644826125dd565b604082019050919050565b600060208201905081810360008301526126688161262c565b9050919050565b7f455243373231456e756d657261626c653a206f776e657220696e646578206f7560008201527f74206f6620626f756e6473000000000000000000000000000000000000000000602082015250565b60006126cb602b83611de1565b91506126d68261266f565b604082019050919050565b600060208201905081810360008301526126fa816126be565b9050919050565b7f455243373231456e756d657261626c653a20676c6f62616c20696e646578206f60008201527f7574206f6620626f756e64730000000000000000000000000000000000000000602082015250565b600061275d602c83611de1565b915061276882612701565b604082019050919050565b6000602082019050818103600083015261278c81612750565b9050919050565b7f4e487b7100000000000000000000000000000000000000000000000000000000600052603260045260246000fd5b7f4552433732313a206f776e657220717565727920666f72206e6f6e657869737460008201527f656e7420746f6b656e0000000000000000000000000000000000000000000000602082015250565b600061281e602983611de1565b9150612829826127c2565b604082019050919050565b6000602082019050818103600083015261284d81612811565b9050919050565b7f4552433732313a2062616c616e636520717565727920666f7220746865207a6560008201527f726f206164647265737300000000000000000000000000000000000000000000602082015250565b60006128b0602a83611de1565b91506128bb82612854565b604082019050919050565b600060208201905081810360008301526128df816128a3565b9050919050565b7f4552433732314d657461646174613a2055524920717565727920666f72206e6f60008201527f6e6578697374656e7420746f6b656e0000000000000000000000000000000000602082015250565b6000612942602f83611de1565b915061294d826128e6565b604082019050919050565b6000602082019050818103600083015261297181612935565b9050919050565b600081905092915050565b600061298e82611dd6565b6129988185612978565b93506129a8818560208601611df2565b80840191505092915050565b60006129c08285612983565b91506129cc8284612983565b91508190509392505050565b7f4552433732313a206f70657261746f7220717565727920666f72206e6f6e657860008201527f697374656e7420746f6b656e0000000000000000000000000000000000000000602082015250565b6000612a34602c83611de1565b9150612a3f826129d8565b604082019050919050565b60006020820190508181036000830152612a6381612a27565b9050919050565b7f4552433732313a207472616e736665722066726f6d20696e636f72726563742060008201527f6f776e6572000000000000000000000000000000000000000000000000000000602082015250565b6000612ac6602583611de1565b9150612ad182612a6a565b604082019050919050565b60006020820190508181036000830152612af581612ab9565b9050919050565b7f4552433732313a207472616e7366657220746f20746865207a65726f2061646460008201527f7265737300000000000000000000000000000000000000000000000000000000602082015250565b6000612b58602483611de1565b9150612b6382612afc565b604082019050919050565b60006020820190508181036000830152612b8781612b4b565b9050919050565b7f4e487b7100000000000000000000000000000000000000000000000000000000600052601160045260246000fd5b6000612bc882611e91565b9150612bd383611e91565b925082821015612be657612be5612b8e565b5b828203905092915050565b6000612bfc82611e91565b9150612c0783611e91565b9250827fffffffffffffffffffffffffffffffffffffffffffffffffffffffffffffffff03821115612c3c57612c3b612b8e565b5b828201905092915050565b7f4552433732313a20617070726f766520746f2063616c6c657200000000000000600082015250565b6000612c7d601983611de1565b9150612c8882612c47565b602082019050919050565b60006020820190508181036000830152612cac81612c70565b9050919050565b7f4552433732313a207472616e7366657220746f206e6f6e20455243373231526560008201527f63656976657220696d706c656d656e7465720000000000000000000000000000602082015250565b6000612d0f603283611de1565b9150612d1a82612cb3565b604082019050919050565b60006020820190508181036000830152612d3e81612d02565b9050919050565b6000612d5082611e91565b91507fffffffffffffffffffffffffffffffffffffffffffffffffffffffffffffffff8203612d8257612d81612b8e565b5b600182019050919050565b7f4e487b7100000000000000000000000000000000000000000000000000000000600052601260045260246000fd5b6000612dc782611e91565b9150612dd283611e91565b925082612de257612de1612d8d565b5b828204905092915050565b6000612df882611e91565b9150612e0383611e91565b925082612e1357612e12612d8d565b5b828206905092915050565b600081519050919050565b600082825260208201905092915050565b6000612e4582612e1e565b612e4f8185612e29565b9350612e5f818560208601611df2565b612e6881611e25565b840191505092915050565b6000608082019050612e886000830187611f26565b612e956020830186611f26565b612ea26040830185611fbc565b8181036060830152612eb48184612e3a565b905095945050505050565b600081519050612ece81611d47565b92915050565b600060208284031215612eea57612ee9611d11565b5b6000612ef884828501612ebf565b91505092915050565b7f4552433732313a206d696e7420746f20746865207a65726f2061646472657373600082015250565b6000612f37602083611de1565b9150612f4282612f01565b602082019050919050565b60006020820190508181036000830152612f6681612f2a565b9050919050565b7f4552433732313a20746f6b656e20616c7265616479206d696e74656400000000600082015250565b6000612fa3601c83611de1565b9150612fae82612f6d565b602082019050919050565b60006020820190508181036000830152612fd281612f96565b9050919050565b7f4e487b7100000000000000000000000000000000000000000000000000000000600052603160045260246000fdfea2646970667358221220cb85eace2625af8de8d54b51caddc44978f9b027bf42c097f58be63e4f63aa6864736f6c634300080d0033",
  "immutableReferences": {},
  "source": "// SPDX-License-Identifier : MIT\r\n\r\npragma solidity >=0.4.22 <0.9.0;\r\n\r\nimport \"@openzeppelin/contracts/token/ERC721/extensions/ERC721Enumerable.sol\";\r\nimport \"@openzeppelin/contracts/utils/Counters.sol\";\r\n\r\n//https://docs.openzeppelin.com/contracts/4.x/api/utils#Counters\r\ncontract MintingTicketToken is ERC721Enumerable{\r\n    using Counters for Counters.Counter;\r\n    Counters.Counter private _tokenIds;\r\n\r\n    \r\n    constructor() ERC721(\"BTSTicket\",\"BTS\"){\r\n        //_setBaseURI(\"ipfs://\");\r\n    }\r\n    \r\n    function mintTicketToken(address owner, string memory metadataURI) public returns(uint256){\r\n        _tokenIds.increment();\r\n        \r\n        uint256 id = _tokenIds.current();\r\n        _safeMint(owner, id);\r\n        //_setTokenURI(id, metadataURI);\r\n    }\r\n}",
  "sourcePath": "C:\\Users\\82107\\github\\BTS\\contracts\\MintingTicketToken.sol",
  "compiler": {
    "name": "solc",
    "version": "0.8.13+commit.abaa5c0e.Emscripten.clang"
  },
  "schemaVersion": "3.4.7",
  "updatedAt": "2022-05-13T05:04:55.930Z",
  "devdoc": {
    "kind": "dev",
    "methods": {
      "approve(address,uint256)": {
        "details": "See {IERC721-approve}."
      },
      "balanceOf(address)": {
        "details": "See {IERC721-balanceOf}."
      },
      "getApproved(uint256)": {
        "details": "See {IERC721-getApproved}."
      },
      "isApprovedForAll(address,address)": {
        "details": "See {IERC721-isApprovedForAll}."
      },
      "name()": {
        "details": "See {IERC721Metadata-name}."
      },
      "ownerOf(uint256)": {
        "details": "See {IERC721-ownerOf}."
      },
      "safeTransferFrom(address,address,uint256)": {
        "details": "See {IERC721-safeTransferFrom}."
      },
      "safeTransferFrom(address,address,uint256,bytes)": {
        "details": "See {IERC721-safeTransferFrom}."
      },
      "setApprovalForAll(address,bool)": {
        "details": "See {IERC721-setApprovalForAll}."
      },
      "supportsInterface(bytes4)": {
        "details": "See {IERC165-supportsInterface}."
      },
      "symbol()": {
        "details": "See {IERC721Metadata-symbol}."
      },
      "tokenByIndex(uint256)": {
        "details": "See {IERC721Enumerable-tokenByIndex}."
      },
      "tokenOfOwnerByIndex(address,uint256)": {
        "details": "See {IERC721Enumerable-tokenOfOwnerByIndex}."
      },
      "tokenURI(uint256)": {
        "details": "See {IERC721Metadata-tokenURI}."
      },
      "totalSupply()": {
        "details": "See {IERC721Enumerable-totalSupply}."
      },
      "transferFrom(address,address,uint256)": {
        "details": "See {IERC721-transferFrom}."
      }
    },
    "version": 1
  },
  "userdoc": {
    "kind": "user",
    "methods": {},
    "version": 1
  }
}