{
  "contractName": "PurchaseTicketToken",
  "abi": [
    {
      "inputs": [
        {
          "internalType": "address",
          "name": "_mintTicketTokenAddress",
          "type": "address"
        }
      ],
      "stateMutability": "nonpayable",
      "type": "constructor"
    },
    {
      "inputs": [],
      "name": "mintTicketTokenAddress",
      "outputs": [
        {
          "internalType": "contract MintingTicketToken",
          "name": "",
          "type": "address"
        }
      ],
      "stateMutability": "view",
      "type": "function"
    },
    {
      "inputs": [
        {
          "internalType": "uint256",
          "name": "",
          "type": "uint256"
        }
      ],
      "name": "onSaleTicketTokenArray",
      "outputs": [
        {
          "internalType": "uint256",
          "name": "",
          "type": "uint256"
        }
      ],
      "stateMutability": "view",
      "type": "function"
    },
    {
      "inputs": [
        {
          "internalType": "uint256",
          "name": "",
          "type": "uint256"
        }
      ],
      "name": "ticketTokenPrices",
      "outputs": [
        {
          "internalType": "uint256",
          "name": "",
          "type": "uint256"
        }
      ],
      "stateMutability": "view",
      "type": "function"
    },
    {
      "inputs": [
        {
          "internalType": "uint256",
          "name": "_tokenId",
          "type": "uint256"
        },
        {
          "internalType": "uint256",
          "name": "_ticketPrice",
          "type": "uint256"
        }
      ],
      "name": "setForSaleTicketToken",
      "outputs": [],
      "stateMutability": "nonpayable",
      "type": "function"
    },
    {
      "inputs": [
        {
          "internalType": "uint256",
          "name": "_tokenId",
          "type": "uint256"
        }
      ],
      "name": "purchaseTicketToken",
      "outputs": [],
      "stateMutability": "payable",
      "type": "function"
    },
    {
      "inputs": [],
      "name": "getOnSaleTicketTokenArrayLenth",
      "outputs": [
        {
          "internalType": "uint256",
          "name": "",
          "type": "uint256"
        }
      ],
      "stateMutability": "view",
      "type": "function"
    }
  ],
  "bytecode": "0x608060405234801561001057600080fd5b50604051610bd5380380610bd5833981810160405281019061003291906100db565b806000806101000a81548173ffffffffffffffffffffffffffffffffffffffff021916908373ffffffffffffffffffffffffffffffffffffffff16021790555050610108565b600080fd5b600073ffffffffffffffffffffffffffffffffffffffff82169050919050565b60006100a88261007d565b9050919050565b6100b88161009d565b81146100c357600080fd5b50565b6000815190506100d5816100af565b92915050565b6000602082840312156100f1576100f0610078565b5b60006100ff848285016100c6565b91505092915050565b610abe806101176000396000f3fe6080604052600436106100555760003560e01c806314dba2721461005a5780631c2c7cd214610085578063765353bd146100c25780637e285ffb146100de578063a90820781461011b578063b72d569314610146575b600080fd5b34801561006657600080fd5b5061006f61016f565b60405161007c919061068c565b60405180910390f35b34801561009157600080fd5b506100ac60048036038101906100a791906106e2565b610193565b6040516100b9919061071e565b60405180910390f35b6100dc60048036038101906100d791906106e2565b6101b7565b005b3480156100ea57600080fd5b50610105600480360381019061010091906106e2565b6104c0565b604051610112919061071e565b60405180910390f35b34801561012757600080fd5b506101306104d8565b60405161013d919061071e565b60405180910390f35b34801561015257600080fd5b5061016d60048036038101906101689190610739565b6104e5565b005b60008054906101000a900473ffffffffffffffffffffffffffffffffffffffff1681565b600281815481106101a357600080fd5b906000526020600020016000915090505481565b60006001600083815260200190815260200160002054905060008060009054906101000a900473ffffffffffffffffffffffffffffffffffffffff1673ffffffffffffffffffffffffffffffffffffffff16636352211e846040518263ffffffff1660e01b815260040161022b919061071e565b602060405180830381865afa158015610248573d6000803e3d6000fd5b505050506040513d601f19601f8201168201806040525081019061026c91906107b7565b9050600082116102b1576040517f08c379a00000000000000000000000000000000000000000000000000000000081526004016102a890610841565b60405180910390fd5b813410156102f4576040517f08c379a00000000000000000000000000000000000000000000000000000000081526004016102eb906108ad565b60405180910390fd5b8073ffffffffffffffffffffffffffffffffffffffff166108fc349081150290604051600060405180830381858888f1935050505015801561033a573d6000803e3d6000fd5b5060008054906101000a900473ffffffffffffffffffffffffffffffffffffffff1673ffffffffffffffffffffffffffffffffffffffff166342842e0e8233866040518463ffffffff1660e01b8152600401610398939291906108dc565b600060405180830381600087803b1580156103b257600080fd5b505af11580156103c6573d6000803e3d6000fd5b505050506000600160008581526020019081526020016000208190555060005b6002805490508110156104ba576000600160006002848154811061040d5761040c610913565b5b9060005260206000200154815260200190815260200160002054036104a757600260016002805490506104409190610971565b8154811061045157610450610913565b5b9060005260206000200154600282815481106104705761046f610913565b5b906000526020600020018190555060028054806104905761048f6109a5565b5b600190038181906000526020600020016000905590555b80806104b2906109d4565b9150506103e6565b50505050565b60016020528060005260406000206000915090505481565b6000600280549050905090565b60008060009054906101000a900473ffffffffffffffffffffffffffffffffffffffff1673ffffffffffffffffffffffffffffffffffffffff16636352211e846040518263ffffffff1660e01b8152600401610541919061071e565b602060405180830381865afa15801561055e573d6000803e3d6000fd5b505050506040513d601f19601f8201168201806040525081019061058291906107b7565b9050600082116105c7576040517f08c379a00000000000000000000000000000000000000000000000000000000081526004016105be90610a68565b60405180910390fd5b8160016000858152602001908152602001600020819055506002839080600181540180825580915050600190039060005260206000200160009091909190915055505050565b600073ffffffffffffffffffffffffffffffffffffffff82169050919050565b6000819050919050565b600061065261064d6106488461060d565b61062d565b61060d565b9050919050565b600061066482610637565b9050919050565b600061067682610659565b9050919050565b6106868161066b565b82525050565b60006020820190506106a1600083018461067d565b92915050565b600080fd5b6000819050919050565b6106bf816106ac565b81146106ca57600080fd5b50565b6000813590506106dc816106b6565b92915050565b6000602082840312156106f8576106f76106a7565b5b6000610706848285016106cd565b91505092915050565b610718816106ac565b82525050565b6000602082019050610733600083018461070f565b92915050565b600080604083850312156107505761074f6106a7565b5b600061075e858286016106cd565b925050602061076f858286016106cd565b9150509250929050565b60006107848261060d565b9050919050565b61079481610779565b811461079f57600080fd5b50565b6000815190506107b18161078b565b92915050565b6000602082840312156107cd576107cc6106a7565b5b60006107db848285016107a2565b91505092915050565b600082825260208201905092915050565b7f5469636b657420546f6b656e206e6f742073616c652e00000000000000000000600082015250565b600061082b6016836107e4565b9150610836826107f5565b602082019050919050565b6000602082019050818103600083015261085a8161081e565b9050919050565b7f43616c6c65722073656e74206c6f776572207468616e20707269636500000000600082015250565b6000610897601c836107e4565b91506108a282610861565b602082019050919050565b600060208201905081810360008301526108c68161088a565b9050919050565b6108d681610779565b82525050565b60006060820190506108f160008301866108cd565b6108fe60208301856108cd565b61090b604083018461070f565b949350505050565b7f4e487b7100000000000000000000000000000000000000000000000000000000600052603260045260246000fd5b7f4e487b7100000000000000000000000000000000000000000000000000000000600052601160045260246000fd5b600061097c826106ac565b9150610987836106ac565b92508282101561099a57610999610942565b5b828203905092915050565b7f4e487b7100000000000000000000000000000000000000000000000000000000600052603160045260246000fd5b60006109df826106ac565b91507fffffffffffffffffffffffffffffffffffffffffffffffffffffffffffffffff8203610a1157610a10610942565b5b600182019050919050565b7f5072696365206973207a65726f206f72206c6f77657200000000000000000000600082015250565b6000610a526016836107e4565b9150610a5d82610a1c565b602082019050919050565b60006020820190508181036000830152610a8181610a45565b905091905056fea2646970667358221220c74dff573005b87981d156463b1824edc80ee2a884080d83215c6051a9eaf80e64736f6c634300080d0033",
  "immutableReferences": {},
  "source": "// SPDX-License-Identifier : MIT\r\n\r\npragma solidity >=0.4.22 <0.9.0;\r\n\r\nimport \"@openzeppelin/contracts/token/ERC721/extensions/ERC721Enumerable.sol\";\r\nimport \"@openzeppelin/contracts/utils/Counters.sol\";\r\nimport \"./MintingTicketToken.sol\";\r\n\r\ncontract PurchaseTicketToken{\r\n    MintingTicketToken public mintTicketTokenAddress;\r\n\r\n    constructor (address _mintTicketTokenAddress){\r\n        mintTicketTokenAddress = MintingTicketToken(_mintTicketTokenAddress);\r\n    }\r\n\r\n    //(key, value) => (_tokenId, _ticketPrice)\r\n    mapping(uint256 => uint256) public ticketTokenPrices;\r\n    uint256[] public onSaleTicketTokenArray;\r\n\r\n    function setForSaleTicketToken(uint256 _tokenId, uint256 _ticketPrice) public{\r\n        address ticketOwner = mintTicketTokenAddress.ownerOf(_tokenId);\r\n\r\n        require(_ticketPrice > 0, \"Price is zero or lower\");\r\n        \r\n        ticketTokenPrices[_tokenId] = _ticketPrice;\r\n        onSaleTicketTokenArray.push(_tokenId);\r\n    }\r\n\r\n    function purchaseTicketToken(uint256 _tokenId) public payable{\r\n        uint256 ticketPrice = ticketTokenPrices[_tokenId];\r\n        address ticketOwner = mintTicketTokenAddress.ownerOf(_tokenId);\r\n        require(ticketPrice > 0 , \"Ticket Token not sale.\");\r\n        require(msg.value >= ticketPrice, \"Caller sent lower than price\");\r\n\r\n        //msg.value : price     .\r\n        //   \r\n        payable(ticketOwner).transfer(msg.value);\r\n        mintTicketTokenAddress.safeTransferFrom(ticketOwner, msg.sender, _tokenId);\r\n\r\n        ticketTokenPrices[_tokenId] = 0;\r\n\r\n        for(uint256 i = 0; i < onSaleTicketTokenArray.length ; i++){\r\n            //   0   \r\n            if(ticketTokenPrices[onSaleTicketTokenArray[i]] == 0){\r\n                onSaleTicketTokenArray[i] = onSaleTicketTokenArray[onSaleTicketTokenArray.length - 1];\r\n                onSaleTicketTokenArray.pop();\r\n            }\r\n        }\r\n    }\r\n\r\n    function getOnSaleTicketTokenArrayLenth() view public returns (uint256){\r\n        return onSaleTicketTokenArray.length;\r\n    }\r\n}",
  "sourcePath": "C:\\Users\\82107\\github\\BTS\\contracts\\PurchaseTicketToken.sol",
  "compiler": {
    "name": "solc",
    "version": "0.8.13+commit.abaa5c0e.Emscripten.clang"
  },
  "schemaVersion": "3.4.7",
  "updatedAt": "2022-05-13T05:04:55.950Z",
  "devdoc": {
    "kind": "dev",
    "methods": {},
    "version": 1
  },
  "userdoc": {
    "kind": "user",
    "methods": {},
    "version": 1
  }
}